{"abi":[{"type":"constructor","inputs":[{"name":"_name","type":"string","internalType":"string"},{"name":"_symbol","type":"string","internalType":"string"},{"name":"_decimals","type":"uint8","internalType":"uint8"}],"stateMutability":"nonpayable"},{"type":"function","name":"DOMAIN_SEPARATOR","inputs":[],"outputs":[{"name":"","type":"bytes32","internalType":"bytes32"}],"stateMutability":"view"},{"type":"function","name":"allowance","inputs":[{"name":"","type":"address","internalType":"address"},{"name":"","type":"address","internalType":"address"}],"outputs":[{"name":"","type":"uint256","internalType":"uint256"}],"stateMutability":"view"},{"type":"function","name":"approve","inputs":[{"name":"spender","type":"address","internalType":"address"},{"name":"amount","type":"uint256","internalType":"uint256"}],"outputs":[{"name":"","type":"bool","internalType":"bool"}],"stateMutability":"nonpayable"},{"type":"function","name":"balanceOf","inputs":[{"name":"","type":"address","internalType":"address"}],"outputs":[{"name":"","type":"uint256","internalType":"uint256"}],"stateMutability":"view"},{"type":"function","name":"decimals","inputs":[],"outputs":[{"name":"","type":"uint8","internalType":"uint8"}],"stateMutability":"view"},{"type":"function","name":"mint","inputs":[{"name":"to","type":"address","internalType":"address"},{"name":"amount","type":"uint256","internalType":"uint256"}],"outputs":[],"stateMutability":"nonpayable"},{"type":"function","name":"name","inputs":[],"outputs":[{"name":"","type":"string","internalType":"string"}],"stateMutability":"view"},{"type":"function","name":"nonces","inputs":[{"name":"","type":"address","internalType":"address"}],"outputs":[{"name":"","type":"uint256","internalType":"uint256"}],"stateMutability":"view"},{"type":"function","name":"permit","inputs":[{"name":"owner","type":"address","internalType":"address"},{"name":"spender","type":"address","internalType":"address"},{"name":"value","type":"uint256","internalType":"uint256"},{"name":"deadline","type":"uint256","internalType":"uint256"},{"name":"v","type":"uint8","internalType":"uint8"},{"name":"r","type":"bytes32","internalType":"bytes32"},{"name":"s","type":"bytes32","internalType":"bytes32"}],"outputs":[],"stateMutability":"nonpayable"},{"type":"function","name":"symbol","inputs":[],"outputs":[{"name":"","type":"string","internalType":"string"}],"stateMutability":"view"},{"type":"function","name":"totalSupply","inputs":[],"outputs":[{"name":"","type":"uint256","internalType":"uint256"}],"stateMutability":"view"},{"type":"function","name":"transfer","inputs":[{"name":"to","type":"address","internalType":"address"},{"name":"amount","type":"uint256","internalType":"uint256"}],"outputs":[{"name":"","type":"bool","internalType":"bool"}],"stateMutability":"nonpayable"},{"type":"function","name":"transferFrom","inputs":[{"name":"from","type":"address","internalType":"address"},{"name":"to","type":"address","internalType":"address"},{"name":"amount","type":"uint256","internalType":"uint256"}],"outputs":[{"name":"","type":"bool","internalType":"bool"}],"stateMutability":"nonpayable"},{"type":"event","name":"Approval","inputs":[{"name":"owner","type":"address","indexed":true,"internalType":"address"},{"name":"spender","type":"address","indexed":true,"internalType":"address"},{"name":"amount","type":"uint256","indexed":false,"internalType":"uint256"}],"anonymous":false},{"type":"event","name":"Transfer","inputs":[{"name":"from","type":"address","indexed":true,"internalType":"address"},{"name":"to","type":"address","indexed":true,"internalType":"address"},{"name":"amount","type":"uint256","indexed":false,"internalType":"uint256"}],"anonymous":false}],"bytecode":{"object":"0x60e0604090808252346200043c5762001035803803809162000022828562000441565b833981016060828203126200043c5781516001600160401b0393908481116200043c57826200005391850162000465565b92602092838201518681116200043c5783916200007291840162000465565b91015160ff811681036200043c578451948686116200042657600095806200009b8854620004dc565b92601f93848111620003d5575b5087908483116001146200036d57899262000361575b50508160011b916000199060031b1c19161786555b8251908782116200034d578190600194620000ef8654620004dc565b828111620002f8575b50879183116001146200029457889262000288575b5050600019600383901b1c191690831b1782555b6080524660a052815184549181866200013a85620004dc565b92838352878301958882821691826000146200026857505060011462000228575b506200016a9250038262000441565b519020928151928301937f8b73c3c69bb8fe3d512ecc4cf759cc79239f7b179b0ffacaa9a75d522b39400f8552828401527fc89efdaa54c0f20c7adf612882df0950f5a951637e0307cdcb4c672f298b8bc660608401524660808401523060a084015260a0835260c08301948386109086111762000214575083905251902060c052610b1b90816200051a823960805181610604015260a05181610944015260c0518161096b0152f35b634e487b7160e01b81526041600452602490fd5b8791508880528189209089915b8583106200024f5750506200016a9350820101386200015b565b8054838801850152869450899390920191810162000235565b60ff191688526200016a95151560051b85010192503891506200015b9050565b0151905038806200010d565b8589528789208694509190601f1984168a5b8a828210620002e15750508411620002c7575b505050811b01825562000121565b015160001960f88460031b161c19169055388080620002b9565b8385015186558997909501949384019301620002a6565b909192508589528789208380860160051c8201928a871062000343575b91869589929594930160051c01915b82811062000334575050620000f8565b8b815586955088910162000324565b9250819262000315565b634e487b7160e01b87526041600452602487fd5b015190503880620000be565b898052888a209250601f1984168a5b8a828210620003be575050908460019594939210620003a4575b505050811b018655620000d3565b015160001960f88460031b161c1916905538808062000396565b60018596829396860151815501950193016200037c565b9091508880528789208480850160051c8201928a86106200041c575b9085949392910160051c01905b8181106200040d5750620000a8565b8a8155849350600101620003fe565b92508192620003f1565b634e487b7160e01b600052604160045260246000fd5b600080fd5b601f909101601f19168101906001600160401b038211908210176200042657604052565b919080601f840112156200043c578251906001600160401b038211620004265760405191602091620004a1601f8301601f191684018562000441565b8184528282870101116200043c5760005b818110620004c857508260009394955001015290565b8581018301518482018401528201620004b2565b90600182811c921680156200050e575b6020831014620004f857565b634e487b7160e01b600052602260045260246000fd5b91607f1691620004ec56fe6080604081815260048036101561001557600080fd5b600092833560e01c90816306fdde031461078a57508063095ea7b31461071b57806318160ddd146106fc57806323b872dd14610628578063313ce567146105ea5780633644e515146105c657806340c10f191461053b57806370a08231146105045780637ecebe00146104cd57806395d89b41146103ee578063a9059cbb1461036c578063d505accf146100fd5763dd62ed3e146100b257600080fd5b346100f957816003193601126100f95760209282916100cf6108eb565b6100d7610906565b916001600160a01b038092168452865283832091168252845220549051908152f35b8280fd5b509190346103685760e0366003190112610368576101196108eb565b90610122610906565b91604435606435926084359260ff8416809403610364574285106103215761014861093f565b956001600160a01b038092169586895260209560058752848a209889549960018b01905585519285898501957f6e71edae12b1b97f4d1f60370fef10105fa2faae0126114a169c64845d6126c987528b89870152169a8b606086015288608086015260a085015260c084015260c0835260e0830167ffffffffffffffff948482108683111761030d57818852845190206101008501927f1901000000000000000000000000000000000000000000000000000000000000845261010286015261012285015260428152610160840194818610908611176102fa57848752519020835261018082015260a4356101a082015260c4356101c0909101528780528490889060809060015afa156102f05786511696871515806102e7575b156102a65786977f8c5be1e5ebec7d5bd14f71427d1e84f3dd0314c0f7b2291e5b200ac8c7c3b9259596975283528087208688528352818188205551908152a380f35b83606492519162461bcd60e51b8352820152600e60248201527f494e56414c49445f5349474e45520000000000000000000000000000000000006044820152fd5b50848814610263565b81513d88823e3d90fd5b60248c60418f634e487b7160e01b835252fd5b5060248c60418f634e487b7160e01b835252fd5b606488602084519162461bcd60e51b8352820152601760248201527f5045524d49545f444541444c494e455f455850495245440000000000000000006044820152fd5b8680fd5b5080fd5b5050346103685780600319360112610368576020916103896108eb565b826001600160a01b0360243592338552600387528285206103ab85825461091c565b90551692838152600386522081815401905582519081527fddf252ad1be2c89b69c2b068fc378daa952ba7f163c4a11628f55a4df523b3ef843392a35160018152f35b50503461036857816003193601126103685780519082600180549161041283610830565b808652928281169081156104a55750600114610449575b50505061043b8261044594038361086a565b51918291826108a2565b0390f35b94508085527fb10e2d527612073b26eecdfd717e6a320cf44b4afac2b0732d9fcbe2b7fa0cf65b82861061048d5750505061043b8260206104459582010194610429565b80546020878701810191909152909501948101610470565b61044597508693506020925061043b94915060ff191682840152151560051b82010194610429565b50503461036857602036600319011261036857806020926001600160a01b036104f46108eb565b1681526005845220549051908152f35b50503461036857602036600319011261036857806020926001600160a01b0361052b6108eb565b1681526003845220549051908152f35b50346100f957816003193601126100f9576105546108eb565b60243591600254908382018092116105b3575084926001600160a01b037fddf252ad1be2c89b69c2b068fc378daa952ba7f163c4a11628f55a4df523b3ef9360209360025516948585526003835280852082815401905551908152a380f35b856011602492634e487b7160e01b835252fd5b5050346103685781600319360112610368576020906105e361093f565b9051908152f35b5050346103685781600319360112610368576020905160ff7f0000000000000000000000000000000000000000000000000000000000000000168152f35b5091346106f95760603660031901126106f9576106436108eb565b7fddf252ad1be2c89b69c2b068fc378daa952ba7f163c4a11628f55a4df523b3ef61066c610906565b94604435856001600160a01b0380951694858752602098848a958652838920338a528652838920548560001982036106d6575b505050868852600385528288206106b785825461091c565b9055169586815260038452208181540190558551908152a35160018152f35b6106df9161091c565b90888a528652838920338a5286528389205538808561069f565b80fd5b5050346103685781600319360112610368576020906002549051908152f35b50346100f957816003193601126100f9576020926107376108eb565b918360243592839233825287526001600160a01b038282209516948582528752205582519081527f8c5be1e5ebec7d5bd14f71427d1e84f3dd0314c0f7b2291e5b200ac8c7c3b925843392a35160018152f35b849084346100f957826003193601126100f9578280546107a981610830565b808552916001918083169081156104a557506001146107d45750505061043b8261044594038361086a565b80809650527f290decd9548b62a8d60345a988386fc84ba6bc95484008f6362f93160ef3e5635b8286106108185750505061043b8260206104459582010194610429565b805460208787018101919091529095019481016107fb565b90600182811c92168015610860575b602083101461084a57565b634e487b7160e01b600052602260045260246000fd5b91607f169161083f565b90601f8019910116810190811067ffffffffffffffff82111761088c57604052565b634e487b7160e01b600052604160045260246000fd5b6020808252825181830181905290939260005b8281106108d757505060409293506000838284010152601f8019910116010190565b8181018601518482016040015285016108b5565b600435906001600160a01b038216820361090157565b600080fd5b602435906001600160a01b038216820361090157565b9190820391821161092957565b634e487b7160e01b600052601160045260246000fd5b6000467f00000000000000000000000000000000000000000000000000000000000000000361098d57507f000000000000000000000000000000000000000000000000000000000000000090565b6040518154829161099d82610830565b8082528160209485820194600190878282169182600014610ac7575050600114610a6e575b506109cf9250038261086a565b51902091604051918201927f8b73c3c69bb8fe3d512ecc4cf759cc79239f7b179b0ffacaa9a75d522b39400f845260408301527fc89efdaa54c0f20c7adf612882df0950f5a951637e0307cdcb4c672f298b8bc660608301524660808301523060a083015260a0825260c082019082821067ffffffffffffffff831117610a5a575060405251902090565b80634e487b7160e01b602492526041600452fd5b87805286915087907f290decd9548b62a8d60345a988386fc84ba6bc95484008f6362f93160ef3e5635b858310610aaf5750506109cf9350820101386109c2565b80548388018501528694508893909201918101610a98565b60ff191688526109cf95151560051b85010192503891506109c2905056fea2646970667358221220c98d3aee3fb5efcd58dc63b09db8ace22066f6e32101265089bd290243891cc064736f6c63430008130033","linkReferences":{}},"methodIdentifiers":{"DOMAIN_SEPARATOR()":"3644e515","allowance(address,address)":"dd62ed3e","approve(address,uint256)":"095ea7b3","balanceOf(address)":"70a08231","decimals()":"313ce567","mint(address,uint256)":"40c10f19","name()":"06fdde03","nonces(address)":"7ecebe00","permit(address,address,uint256,uint256,uint8,bytes32,bytes32)":"d505accf","symbol()":"95d89b41","totalSupply()":"18160ddd","transfer(address,uint256)":"a9059cbb","transferFrom(address,address,uint256)":"23b872dd"},"id":59}