{"abi":[{"type":"constructor","inputs":[],"stateMutability":"nonpayable"},{"type":"function","name":"createPool","inputs":[{"name":"tokenX","type":"address","internalType":"address"},{"name":"tokenY","type":"address","internalType":"address"},{"name":"fee","type":"uint24","internalType":"uint24"}],"outputs":[{"name":"pool","type":"address","internalType":"address"}],"stateMutability":"nonpayable"},{"type":"function","name":"fees","inputs":[{"name":"","type":"uint24","internalType":"uint24"}],"outputs":[{"name":"","type":"uint24","internalType":"uint24"}],"stateMutability":"view"},{"type":"function","name":"parameters","inputs":[],"outputs":[{"name":"factory","type":"address","internalType":"address"},{"name":"token0","type":"address","internalType":"address"},{"name":"token1","type":"address","internalType":"address"},{"name":"tickSpacing","type":"uint24","internalType":"uint24"},{"name":"fee","type":"uint24","internalType":"uint24"}],"stateMutability":"view"},{"type":"function","name":"pools","inputs":[{"name":"","type":"address","internalType":"address"},{"name":"","type":"address","internalType":"address"},{"name":"","type":"uint24","internalType":"uint24"}],"outputs":[{"name":"","type":"address","internalType":"address"}],"stateMutability":"view"},{"type":"event","name":"PoolCreated","inputs":[{"name":"token0","type":"address","indexed":true,"internalType":"address"},{"name":"token1","type":"address","indexed":true,"internalType":"address"},{"name":"fee","type":"uint24","indexed":true,"internalType":"uint24"},{"name":"pool","type":"address","indexed":false,"internalType":"address"}],"anonymous":false},{"type":"error","name":"PoolAlreadyExists","inputs":[]},{"type":"error","name":"TokensMustBeDifferent","inputs":[]},{"type":"error","name":"UnsupportedFee","inputs":[]},{"type":"error","name":"ZeroAddressNotAllowed","inputs":[]}],"bytecode":{"object":"0x6080806040523461007d5760036020527f5ed261ce397475c8f8ccd7526f550ae383248415591df3d1b32ee25c9ab0af2e805462ffffff19908116600a17909155610bb86000527fa81df8da5a49e0ca2395b3c1eb4d55b23a04eb0615a8bee310459ef8a1c6e29c8054909116603c17905561337390816100838239f35b600080fdfe608080604052600436101561001357600080fd5b60003560e01c9081636441c780146105a8575080638903573014610551578063a1671295146100ba5763bae0d9181461004b57600080fd5b346100b55760603660031901126100b55760206100666105f2565b61006e610608565b6100766105e0565b906001600160a01b03809316600052600484528260406000209116600052835262ffffff60406000209116600052825260406000205416604051908152f35b600080fd5b346100b55760603660031901126100b5576100d36105f2565b6100db610608565b6100e36105e0565b906001600160a01b0381166001600160a01b038416146105275762ffffff8216600052600360205262ffffff60406000205416156104fd576001600160a01b0381166001600160a01b038416106000146104f4578281925b6001600160a01b038516156104ca57610167856001600160a01b03166000526004602052604060002090565b6001600160a01b038516600052602052604060002062ffffff82166000526020526001600160a01b03604060002054166104a05762ffffff811660005260036020526040600020546040518060a081011067ffffffffffffffff60a0830111176104715760a081016040523081526001600160a01b03871660208201526001600160a01b038616604082015262ffffff82166060820152608062ffffff84169101523073ffffffffffffffffffffffffffffffffffffffff1960005416176000556001600160a01b03861673ffffffffffffffffffffffffffffffffffffffff19600154161760015560025476ffffff000000000000000000000000000000000000000079ffffff00000000000000000000000000000000000000000000008460b81b169260a01b16907fffffffffffff00000000000000000000000000000000000000000000000000006001600160a01b0388169116171717600255604051602081016001600160a01b03871681526001600160a01b038616604083015262ffffff831660608301526060825281608081011067ffffffffffffffff608084011117610471576080820160405281519020906080612d1f82010167ffffffffffffffff60808301821091111761047157612d1f61061f6080830139608081612d1f81010391016000f5948515610465576001600160a01b036103e78160209816966000805560006001556000600255610394846001600160a01b03166000526004602052604060002090565b8382166000528952604060002062ffffff8616600052895260406000208873ffffffffffffffffffffffffffffffffffffffff198254161790556001600160a01b03166000526004602052604060002090565b91166000528552604060002062ffffff8216600052855260406000208473ffffffffffffffffffffffffffffffffffffffff198254161790557f97d23878912fda7f82bd5a8502f2c6e9086f5a4728f9054627788b3162f86ced856001600160a01b038062ffffff60405195898752169616941692a4604051908152f35b6040513d6000823e3d90fd5b7f4e487b7100000000000000000000000000000000000000000000000000000000600052604160045260246000fd5b60046040517f03119322000000000000000000000000000000000000000000000000000000008152fd5b60046040517f8579befe000000000000000000000000000000000000000000000000000000008152fd5b8092809261013b565b60046040517f271d3eec000000000000000000000000000000000000000000000000000000008152fd5b60046040517ffbfc7a91000000000000000000000000000000000000000000000000000000008152fd5b346100b55760003660031901126100b55760a06001600160a01b038060005416908060015416906002549160405193845260208401528116604083015262ffffff908181851c16606084015260b81c166080820152f35b346100b55760203660031901126100b5576004359062ffffff8083168093036100b55760209260005260038352604060002054168152f35b6044359062ffffff821682036100b557565b600435906001600160a01b03821682036100b557565b602435906001600160a01b03821682036100b55756fe61012080604052346200019857630890357360e41b815260a090600090828160048185335af19182156200018c578091818091818096620000dc575b505061010094855260e05260c052835260805260405190612b5b9283620001c484396080518361130b015251828181610db5015281816118ff01528181611a4c01528181611f600152612354015260c051828181610ddd015281816112870152818161183d01528181611a7301526123e7015260e051828181610e71015281816112c7015261219d015251818181610ca001528181610e490152611aaa0152f35b94509450505050823d841162000184575b601f8101601f191683016001600160401b03811184821017620001705784918491604052810103126200016d575062000126816200019d565b9062000135602082016200019d565b9062000144604082016200019d565b906200016160806200015960608401620001b2565b9201620001b2565b9392919038806200003b565b80fd5b634e487b7160e01b83526041600452602483fd5b503d620000ed565b604051903d90823e3d90fd5b600080fd5b51906001600160a01b03821682036200019857565b519062ffffff82168203620001985756fe608080604052600436101561001357600080fd5b600090813560e01c9081630dfe168114611f41575080631a68650214611f1a578063252c09d714611ecc57806332148f6714611e205780633850c7bd14611dca5780633c8a7d8d14611b665780634614131914611b485780634a182392146119ba5780634f1eb3d8146116c2578063514ea4bf146116605780635339c2961461162a578063883bdbfd146114a4578063a34123a71461132f578063c45a0155146112eb578063d0c93a7c146112ab578063d21220a714611267578063dd5a12d814610cc4578063ddca3f4314610c84578063f305839914610c67578063f30dba9314610bf85763f637731d1461010857600080fd5b34610bf557602080600319360112610bf157610122611f84565b9060029182546001600160a01b0392838216610bc757838316926401000276a384101580610baa575b15610b665777ffffffffffffffffffffffffffffffffffffffff0000000090821b1680916001600160801b03821160071b9582871c9367ffffffffffffffff851160061b94851c9763ffffffff9889811160051b90811c61ffff811160041b90811c60ff811160031b90811c918d600f8411901b92831c9360019a8b60038711811b96871c1196171717171717179060809485831015600014610b525750607e1982018281116106c3571c5b607f1982019182138616610b2857800280607f1c8160ff1c1c800280607f1c8160ff1c1c800280607f1c8160ff1c1c800280607f1c8160ff1c1c800280607f1c8160ff1c1c800280607f1c8160ff1c1c80029081607f1c8260ff1c1c80029283607f1c8460ff1c1c80029485607f1c8660ff1c1c80029687607f1c8860ff1c1c80029889607f1c8a60ff1c1c80029a8b607f1c8c60ff1c1c80029c8d80607f1c9060ff1c1c800260cd1c6604000000000000169d60cc1c6608000000000000169c60cb1c6610000000000000169b60ca1c6620000000000000169a60c91c6640000000000000169960c81c6680000000000000169860c71c670100000000000000169760c61c670200000000000000169660c51c670400000000000000169560c41c670800000000000000169460c31c671000000000000000169360c21c672000000000000000169260c11c674000000000000000169160c01c678000000000000000169060401b171717171717171717171717171790693627a301d71055774c8591828102928184051490151715610b3e577ffffffffffffffffffffffffffffffffffd709b7e5480fba5a50fed5e62ffc55682018281138616610b2857841d890b916fdb2df09e81959a81455e260799a0632f908b8282019283129112908015821691151617610b14578a929190851d8a0b908183036104c957505094600160d81b979462ffffff60a01b9461ffff60d81b1998946b0100000000000000000000007fffffffffff00000000000000000000000000000000000000000000000000000095600160c81b9a995b421685604080516104558161203e565b838152848782015201526affffffffffffff0000000060075492851b16916bffffffffffffffffffffffff19161717176007556040519061049582612022565b868252888d0b908201528c6040820152826060820152015216179160a01b161761ffff60b81b8660b81b1617171617905580f35b9092508a831215610b0e576104dd83612297565b620d89e88111610acb578b9392919087811615610aa25770ffffffffffffffffffffffffffffffffff6ffffcb933bd6fad37aa2d162d1a5940015b16908c8116610a6d575b60048116610a38575b60088116610a03575b601081166109ce575b868116610999575b60408116610964575b87811661092f575b61010081166108fa575b61020081166108c5575b6104008116610890575b610800811661085b575b6110008116610826575b61200081166107f1575b61400081166107bc575b6180008116610787575b620100008116610752575b62020000811661071e575b6204000081166106d7575b6208000016610694575b848413610667575b946b01000000000000000000000085600160c81b9a958d9a958d600160d81b9f9661ffff60d81b199f9b61064a9062ffffff60a01b9e997fffffffffff0000000000000000000000000000000000000000000000000000009d5081161560001461065f5760ff875b1690891c61209d565b161161065857505b99610445565b9050610652565b60ff8b610641565b80919293945015610680578b93929190600019046105d9565b60248c634e487b7160e01b81526012600452fd5b90919293506b048a170391f7dc42444e8fa2908181029181830414901517156106c357908b939291861c6105d1565b60248c634e487b7160e01b81526011600452fd5b91929394506d2216e584f5fa1ea926041bedfe989081810291818304149015171561070a578c9493929190871c906105c7565b60248d634e487b7160e01b81526011600452fd5b91929394506e5d6af8dedb81196699c329225ee6049081810291818304149015171561070a57908c94939291871c906105bc565b91929394506f09aa508b5b7a84e1c677de54f3e99bc99081810291818304149015171561070a57908c94939291871c906105b1565b91929394506f31be135f97d08fd981231505542fcfa69081810291818304149015171561070a57908c94939291871c906105a6565b91929394506f70d869a156d2a1b890bb3df62baf32f79081810291818304149015171561070a57908c94939291871c9061059c565b91929394506fa9f746462d870fdf8a65dc1f90e061e59081810291818304149015171561070a57908c94939291871c90610592565b91929394506fd097f3bdfd2022b8845ad8f792aa58259081810291818304149015171561070a57908c94939291871c90610588565b91929394506fe7159475a2c29b7443b29c7fa6e889d99081810291818304149015171561070a57908c94939291871c9061057e565b91929394506ff3392b0822b70005940c7a398e4b70f39081810291818304149015171561070a57908c94939291871c90610574565b91929394506ff987a7253ac413176f2b074cf7815e549081810291818304149015171561070a57908c94939291871c9061056a565b91929394506ffcbe86c7900a88aedcffc83b479aa3a49081810291818304149015171561070a57908c94939291871c90610560565b91929394506ffe5dee046a99a2a811c461f1969c30539081810291818304149015171561070a57908c94939291871c90610556565b91929394506fff2ea16466c96a3843ec78b326b528619081810291818304149015171561070a57908c94939291871c9061054e565b91929394506fff973b41fa98c081472e6896dfb254c09081810291818304149015171561070a57908c94939291871c90610545565b91929394506fffcb9843d60f6159c9db58835c9266449081810291818304149015171561070a57908c94939291871c9061053d565b91929394506fffe5caca7e10e4e61c3624eaa0941cd09081810291818304149015171561070a57908c94939291871c90610534565b91929394506ffff2e50f5f656932ef12357cf3c7fdcc9081810291818304149015171561070a57908c94939291871c9061052b565b91929394506ffff97272373d413259a46990580e213a9081810291818304149015171561070a57908c94939291871c90610522565b70ffffffffffffffffffffffffffffffffff700100000000000000000000000000000000610518565b606485886040519162461bcd60e51b8352600483015260248201527f54000000000000000000000000000000000000000000000000000000000000006044820152fd5b826104dd565b60248b634e487b7160e01b81526011600452fd5b634e487b7160e01b600052601160045260246000fd5b60248a634e487b7160e01b81526011600452fd5b905081607f03607f81116106c3571b6101f7565b6064826040519062461bcd60e51b82526004820152600160248201527f52000000000000000000000000000000000000000000000000000000000000006044820152fd5b5073fffd8963efd1fc6a506488495d951d5263988d26841061014b565b60046040517f0dc149f0000000000000000000000000000000000000000000000000000000008152fd5b5080fd5b80fd5b5034610bf5576020366003190112610bf557604060a091610c17611fba565b60020b81526004602052208054906001810154600f0b9060036002820154910154916001600160801b036040519460ff81161515865260081c166020850152604084015260608301526080820152f35b5034610bf55780600319360112610bf55760209054604051908152f35b5034610bf55780600319360112610bf557602060405162ffffff7f0000000000000000000000000000000000000000000000000000000000000000168152f35b5034610bf55760a0366003190112610bf557610cde611f84565b90602435151560243503610bf5576064356001600160a01b03811681036112625760843567ffffffffffffffff81116110e457610d1f903690600401611fe0565b929060405191610d2e83612022565b6002546001600160a01b03811684528060a01c60020b602085015261ffff8160b81c16604085015261ffff8160c81c16606085015261ffff8160d81c1660808501526001600160801b0360035416825490600154926001600160a01b03604051987f27954896000000000000000000000000000000000000000000000000000000008a52817f00000000000000000000000000000000000000000000000000000000000000001660048b0152817f00000000000000000000000000000000000000000000000000000000000000001660248b0152818c1660448b0152602435151560648b015260443560848b01521660a48901526001600160a01b03811660c489015260a01c60020b60e488015261010487015262ffffff807f0000000000000000000000000000000000000000000000000000000000000000166101248801527f000000000000000000000000000000000000000000000000000000000000000016610144870152600561016487015260046101848701526101a48601526101c485015260e0846101e48173__$d17d1fe473380c67ec84e69d3dc368d5c4$__5af4948515611255578195829583848597869387956111c8575b50602081015160020b90818360020b141560001461118e5792610f3c62ffffff60a01b928561ffff604061ffff60b81b980151169161ffff608081606085015116930151169263ffffffff42169061248b565b9490917fffffffffff0000000000000000000000000000000000000000000000000000007affff000000000000000000000000000000000000000000000000006001600160a01b0360025493169760c81b169116179160b81b16179160a01b1617176002555b6001600160801b03600354961686816001600160801b0381991603611170575b50508355600155602435156110e857610fd961232f565b92333b156110e457611004918391604051938492839263fa461e3360e01b84528a8c600486016122f8565b038183335af180156110d957908692916110c1575b50506110249161209d565b61102c61232f565b10611097576001600160a01b036040945b60025486519386855285602086015283821688860152606085015260a01c60020b608084015216907fc42079f94a6350d7e6235f29174924f928cc2ac818eb64fed8004e115fbcca6760a03392a382519182526020820152f35b60046040517f098fb561000000000000000000000000000000000000000000000000000000008152fd5b8192506110cd9061200e565b610bf557808591611019565b6040513d84823e3d90fd5b8280fd5b6110f06123c2565b92333b156110e45761111b918391604051938492839263fa461e3360e01b84528a8c600486016122f8565b038183335af180156110d95790859291611158575b505061113b9161209d565b6111436123c2565b10611097576001600160a01b0360409461103d565b8192506111649061200e565b610bf557808491611130565b6fffffffffffffffffffffffffffffffff1916176003558538610fc2565b5050506001600160a01b03167fffffffffffffffffffffffff00000000000000000000000000000000000000006002541617600255610fa2565b9850995050505050935060e0833d60e01161124d575b816111eb60e0938361205a565b81010312610bf5578251936020840151956040850151956001600160a01b03871687036112495760608601518060020b81036112455761122d608088016120aa565b60c060a0890151980151929998919097929338610ee9565b8480fd5b8380fd5b3d91506111de565b50604051903d90823e3d90fd5b600080fd5b5034610bf55780600319360112610bf55760206040516001600160a01b037f0000000000000000000000000000000000000000000000000000000000000000168152f35b5034610bf55780600319360112610bf557602060405162ffffff7f0000000000000000000000000000000000000000000000000000000000000000168152f35b5034610bf55780600319360112610bf55760206040516001600160a01b037f0000000000000000000000000000000000000000000000000000000000000000168152f35b5034610bf5576060366003190112610bf557611349611fba565b611351611f9a565b604435906001600160801b038083168093036112625782600f0b7fffffffffffffffffffffffffffffffff80000000000000000000000000000000811461149057916113b593916113ac6113bb9694604098038386336120be565b97919690612297565b96612297565b948615801590611487575b611417575b50508551918252846020830152838683015260020b9160020b907f0c396cd989a39f4459b5fa1aed6a9a8dcdbc45908acfd67e028cd568da98982c60603392a482519182526020820152f35b60030190815461146761143e611431848b168585166122c4565b92848a169060801c6122c4565b84546001600160801b031660809190911b6fffffffffffffffffffffffffffffffff1916178455565b166fffffffffffffffffffffffffffffffff1982541617905538806113cb565b508515156113c6565b602486634e487b7160e01b81526011600452fd5b5034610bf557602080600319360112610bf1576004359167ffffffffffffffff808411610bf15736602385011215610bf1578360040135908111610bf157602493848260051b8201013681116112495763ffffffff90814216600254928360a01c60020b9261ffff808660b81c169560c81c169561152188612317565b9761152f604051998a61205a565b88528a018988015b82821061160e5750505085519561156661155088612317565b9761155e604051998a61205a565b808952612317565b878a0190601f1901368237885b82518110156115c9576115958888888761158d86896126f3565b511689612707565b61159f828b6126f3565b9060060b905260001981146115b657600101611573565b8b8a634e487b7160e01b81526011600452fd5b888b838c60405193838594850191818652518092526040850193925b8281106115f457505050500390f35b835160060b855286955093810193928101926001016115e5565b81358481168103611626578152908a01908a01611537565b8a80fd5b5034610bf5576020366003190112610bf5576004358060010b809103610bf1578160409160209352600583522054604051908152f35b5034610bf5576020366003190112610bf557604060a09160043581526006602052206001600160801b039081815416916001820154916003600282015491015492604051948552602085015260408401528116606083015260801c6080820152f35b5034610bf55760a0366003190112610bf5576116dc611f84565b6116e4611f9a565b916116ed611faa565b926116f6611fca565b92608435946001600160801b0393848716948588036112625760405160208101903360601b82528660e81b60348201528460e81b6037820152601a81526040810181811067ffffffffffffffff8211176119a45760405251902082526006602052600360408320019788549682881698898482161160001461199e575088915b8860801c8092116000146119965750965b82821698838a6118d3575b50505050851694856117f8575b5050604095506001600160a01b03865192168252846020830152838683015260020b9160020b907fa89c1c8a741251492622c95237828c75d1dbb03ea956f09e3792ff2a14f4fe6260603392a482519182526020820152f35b6118338861180b83859b5460801c6122df565b6001600160801b036fffffffffffffffffffffffffffffffff1983549260801b169116179055565b6001600160a01b037f00000000000000000000000000000000000000000000000000000000000000001690813b156110e45760405163a9059cbb60e01b81526001600160a01b03861660048201526001600160801b0391909116602482015291908290604490829084905af180156118c8576118b0575b8061179f565b6118ba879161200e565b6118c457856118aa565b8580fd5b6040513d89823e3d90fd5b6118ef846fffffffffffffffffffffffffffffffff19936122df565b1691161789556001600160a01b037f00000000000000000000000000000000000000000000000000000000000000001690813b156112495760405163a9059cbb60e01b81526001600160a01b03871660048201526001600160801b039190911660248201529083908290604490829084905af1801561198b57908391611977575b8083611792565b6119809061200e565b610bf1578138611970565b6040513d85823e3d90fd5b905096611787565b91611776565b634e487b7160e01b600052604160045260246000fd5b5034610bf5576060366003190112610bf5576004356024358260443567ffffffffffffffff8111610bf1576119f3903690600401611fe0565b919073__$f9857a4711eec40b8ae03426d7155b8866$__803b156110e457611ae6936040518095819482937f8d0d22a00000000000000000000000000000000000000000000000000000000084526001600160a01b03807f00000000000000000000000000000000000000000000000000000000000000001660048601527f00000000000000000000000000000000000000000000000000000000000000001660248501528a604485015289606485015262ffffff7f00000000000000000000000000000000000000000000000000000000000000001660848501523360a485015260e060c485015260e484019161207c565b03915af48015611b3d57611b2a575b5060405191825260208201527f1c1db1f1d6a01e51fec24bb54087b65fe5430f692280e70d92f718eb72ae76b760403392a280f35b611b369093919361200e565b9138611af5565b6040513d86823e3d90fd5b5034610bf55780600319360112610bf5576020600154604051908152f35b5034610bf55760a0366003190112610bf557611b80611f84565b90611b89611f9a565b611b91611faa565b611b99611fca565b60843567ffffffffffffffff811161124557611bb9903690600401611fe0565b93908360020b938260020b93858512801590611dbd575b8015611db1575b611d87576001600160801b0316928315611d5d57611bfa9184600f0b918a6120be565b969150968081928915159283611d4d575b8915159586611d3d575b333b15610bf1578a8c611c69849360405196879485947fd34879970000000000000000000000000000000000000000000000000000000086526004860152602485015260606044850152606484019161207c565b038183335af1908115611d315750908a9291611d22575b5082611d08575b505061109757859082611cee575b5050611097577f7a53080ba414158be7ec69b987b5fb7d07dee101fe85488f0853ae16239d0bde60806001600160a01b036040988951943386526020860152888a8601528760608601521692a482519182526020820152f35b611cf8925061209d565b611d006123c2565b108438611c95565b611d12925061209d565b611d1a61232f565b108738611c87565b611d2b9061200e565b38611c80565b604051903d90823e3d90fd5b9450611d476123c2565b94611c15565b9150611d5761232f565b91611c0b565b60046040517f10074548000000000000000000000000000000000000000000000000000000008152fd5b60046040517f064847d0000000000000000000000000000000000000000000000000000000008152fd5b50620d89e88613611bd7565b50620d89e7198512611bd0565b5034610bf55780600319360112610bf55760a0600254604051906001600160a01b038116825280831c60020b602083015261ffff90818160b81c166040840152818160c81c16606084015260d81c166080820152f35b5034610bf5576020366003190112610bf55760043561ffff80821682036110e457611e538160025460d81c16928361259d565b90811691808303611e62578380f35b7fac49e518f90a358f652e4400164f05a5d8f7e35e7747279bc3a93dbf584e125a9260409261ffff60d81b197cffff0000000000000000000000000000000000000000000000000000006002549260d81b1691161760025582519182526020820152a13880808380f35b5034610bf5576020366003190112610bf55760043561ffff811015610bf1576060906007015460ff6040519163ffffffff811683528060201c60060b602084015260581c1615156040820152f35b5034610bf55780600319360112610bf55760206001600160801b0360035416604051908152f35b905034610bf15781600319360112610bf1576020906001600160a01b037f0000000000000000000000000000000000000000000000000000000000000000168152f35b600435906001600160a01b038216820361126257565b602435908160020b820361126257565b604435908160020b820361126257565b600435908160020b820361126257565b606435906001600160801b038216820361126257565b9181601f840112156112625782359167ffffffffffffffff8311611262576020838186019501011161126257565b67ffffffffffffffff81116119a457604052565b60a0810190811067ffffffffffffffff8211176119a457604052565b6060810190811067ffffffffffffffff8211176119a457604052565b90601f8019910116810190811067ffffffffffffffff8211176119a457604052565b908060209392818452848401376000828201840152601f01601f1916010190565b91908201809211610b2857565b51906001600160801b038216820361126257565b9390916040938451608081019181831067ffffffffffffffff8411176119a4577f4d8b54ac0000000000000000000000000000000000000000000000000000000095879384526001600160a01b0380991683526020830191600291820b835284840195820b86526060840190600f0b8152898254916001600160801b039788600354169560009d8e54986001549a519d8e52511660048d015251850b60248c015251840b60448b015251600f0b60648a0152600660848a0152600460a48a0152600560c48a0152811660e489015260a01c900b61010487015262ffffff7f0000000000000000000000000000000000000000000000000000000000000000166101248701526101448601526101648501526101848401526080836101a48173__$ee58cc6b4b385dce4aa659b5a6a51152a5$__5af494851561228c5780948194828098612238575b505050929394816003549116918116820361221f575050565b6fffffffffffffffffffffffffffffffff191617600355565b93975094509450506080833d8211612284575b816122586080938361205a565b81010312610bf55750815193612279606060208501519585015194016120aa565b949392388080612206565b3d915061224b565b8451903d90823e3d90fd5b7f80000000000000000000000000000000000000000000000000000000000000008114610b285760000390565b9190916001600160801b0380809416911601918211610b2857565b6001600160801b039182169082160391908211610b2857565b612314949260609282526020820152816040820152019161207c565b90565b67ffffffffffffffff81116119a45760051b60200190565b6040516370a0823160e01b815230600482015260208160248160006001600160a01b037f0000000000000000000000000000000000000000000000000000000000000000165af19081156123b657600091612388575090565b906020823d82116123ae575b816123a16020938361205a565b81010312610bf557505190565b3d9150612394565b6040513d6000823e3d90fd5b6040516370a0823160e01b815230600482015260208160248160006001600160a01b037f0000000000000000000000000000000000000000000000000000000000000000165af19081156123b657600091612388575090565b906040516124288161203e565b604060ff82945463ffffffff811684528060201c60060b602085015260581c161515910152565b90600161ffff80931601918211610b2857565b9061ffff80911691821561247557160690565b634e487b7160e01b600052601260045260246000fd5b94929161ffff918287101561254b576124a68760070161241b565b9663ffffffff9485895116868416146125925784811680868a1611908161256b575b50916124e8986124ed926124f3969594600014612561575098899161244f565b612462565b9761268d565b9085101561254b5784600701918151168254906affffffffffffff000000006bff00000000000000000000006040602086015160201b950151151560581b169316916bffffffffffffffffffffffff19161717179055565b634e487b7160e01b600052603260045260246000fd5b905098899161244f565b905060009493929194190190858211610b28579293919291908516858316146124e86124c8565b909750955050505050565b61ffff9081831690828116821115612614575b81838216106125bf5750505090565b828110156125ff5760078101805463ffffffff1916600117905582168083146125ea576001016125b0565b60246000634e487b7160e01b81526011600452fd5b60246000634e487b7160e01b81526032600452fd5b9250505090565b604051906126288261203e565b60006040838281528260208201520152565b63ffffffff9182169082160391908211610b2857565b9060060b9060060b02908160060b918203610b2857565b9060060b9060060b0190667fffffffffffff198212667fffffffffffff831317610b2857565b6126d09092919261269c61261b565b506126c763ffffffff936020856126b6818651168961263a565b169301519260060b9060020b612650565b9060060b612667565b90604051926126de8461203e565b16825260060b60208201526001604082015290565b805182101561254b5760209160051b010190565b939192909263ffffffff93848116156127f3579061272a6127319493928761263a565b8096612837565b909180835116818516818114600014612754575050505060209150015160060b90565b828495945116809114600014612774575050505060209150015160060b90565b91612794816127886020979594889561263a565b1696828651169061263a565b1692015160060b928391015160060b0392667fffffffffffff1990667fffffffffffff851382861217610b285760060b9360060b908415612475578114600019851416610b2857612314936127ed9260060b9105612650565b90612667565b5091509261ffff84101561254b5761280f60209460070161241b565b928084511690821603612827575b5050015160060b90565b6128309261268d565b388061281d565b90919461284261261b565b5061284b61261b565b9361ffff968782101561254b5760079561286683880161241b565b63ffffffff9261287a888584511689612aac565b612a665750505061288e876124e88461244f565b8881101561254b576128a190870161241b565b9160409286838583015115612a30575b6128bd92511687612aac565b156129ed57886128e3896124e883946128d461261b565b506128dd61261b565b5061244f565b169716956128f1878961209d565b60001998818a01918211610b28575b61290a828261209d565b91600192831c9261291b8b85612b1b565b8d81101561254b5761292e90860161241b565b9087820151156129d757840190818511610b28578d9061294e8d84612b1b565b9182101561254b576129628b92880161241b565b908c612972818b84511686612aac565b938491826129c1575b50506129ae5750506129a1575050898201918211610b285761290a91905b909150612900565b90915061290a9250612999565b9e509c50979a5050505050505050505050565b6129d092508b85511691612aac565b8c8e61297b565b919250508201809211610b285761290a91612999565b6064835162461bcd60e51b815260206004820152600360248201527f4f4c4400000000000000000000000000000000000000000000000000000000006044820152fd5b6128bd92508551612a408161203e565b60ff8b5483811683528060201c60060b602084015260581c1615158782015292506128b1565b96955096509750919550508084511690821614600014612a865750509190565b8261231493955061268d565b9064010000000064ffffffffff80931601918211610b2857565b63ffffffff808092169216828111801580612b0f575b612b045715612af557925b1690811115612ae7575b64ffffffffff8091169116111590565b612af090612a92565b612ad7565b612afe90612a92565b92612acd565b509290915016101590565b50838386161115612ac2565b811561247557069056fea264697066735822122072f3b235227dbfb7380342dcdbbb3a9e98e0a87ef1bdc140f80154ba3d82b1d764736f6c63430008130033a26469706673582212208d1387bcedb674a5c6e06a080913a76f1a9445d65917827e2784770a988e7ac364736f6c63430008130033","linkReferences":{"src/libraries/FlashLoanHandler.sol":{"FlashLoanHandler":[{"start":8797,"length":20}]},"src/libraries/PositionHandler.sol":{"PositionHandler":[{"start":10820,"length":20}]},"src/libraries/SwapHandler.sol":{"SwapHandler":[{"start":5922,"length":20}]}}},"methodIdentifiers":{"createPool(address,address,uint24)":"a1671295","fees(uint24)":"6441c780","parameters()":"89035730","pools(address,address,uint24)":"bae0d918"},"id":27}