{"abi":[{"type":"constructor","inputs":[{"name":"factory_","type":"address","internalType":"address"}],"stateMutability":"nonpayable"},{"type":"function","name":"factory","inputs":[],"outputs":[{"name":"","type":"address","internalType":"address"}],"stateMutability":"view"},{"type":"function","name":"quote","inputs":[{"name":"path","type":"bytes","internalType":"bytes"},{"name":"amountIn","type":"uint256","internalType":"uint256"}],"outputs":[{"name":"amountOut","type":"uint256","internalType":"uint256"},{"name":"sqrtPriceX96AfterList","type":"uint160[]","internalType":"uint160[]"},{"name":"tickAfterList","type":"int24[]","internalType":"int24[]"}],"stateMutability":"nonpayable"},{"type":"function","name":"quoteSingle","inputs":[{"name":"params","type":"tuple","internalType":"struct UniswapV3Quoter.QuoteSingleParams","components":[{"name":"tokenIn","type":"address","internalType":"address"},{"name":"tokenOut","type":"address","internalType":"address"},{"name":"fee","type":"uint24","internalType":"uint24"},{"name":"amountIn","type":"uint256","internalType":"uint256"},{"name":"sqrtPriceLimitX96","type":"uint160","internalType":"uint160"}]}],"outputs":[{"name":"amountOut","type":"uint256","internalType":"uint256"},{"name":"sqrtPriceX96After","type":"uint160","internalType":"uint160"},{"name":"tickAfter","type":"int24","internalType":"int24"}],"stateMutability":"nonpayable"},{"type":"function","name":"uniswapV3SwapCallback","inputs":[{"name":"amount0Delta","type":"int256","internalType":"int256"},{"name":"amount1Delta","type":"int256","internalType":"int256"},{"name":"data","type":"bytes","internalType":"bytes"}],"outputs":[],"stateMutability":"view"}],"bytecode":{"object":"0x60a03461007157601f613b7438819003918201601f19168301916001600160401b038311848410176100765780849260209460405283398101031261007157516001600160a01b038116810361007157608052604051613ae7908161008d82396080518181816104840152610aba0152f35b600080fd5b634e487b7160e01b600052604160045260246000fdfe608060409080825260043610156200001657600080fd5b600090813560e01c92836333224ae11462000068575050508063402358a51462000062578063c45a0155146200005c5763fa461e33146200005657600080fd5b620004a8565b62000462565b620003b6565b346200020d57806003193601126200020d5760043567ffffffffffffffff81116200020957926200018592620000a7620000cf953690600401620002c8565b9160243591620000b78462000b6b565b620000c281620005d6565b9086519889928362000267565b808252620000e0601f1991620005d6565b01936020943686840137620000ff620000f98762000b6b565b620005ef565b9562000199620001686200014d87945b620001586200011e8662000cc5565b9194906200013e6200012f6200028a565b6001600160a01b039097168752565b6001600160a01b0316858e0152565b62ffffff16838e0152565b6060820152878782015262000787565b919b9062000177868862000627565b906001600160a01b03169052565b62000191848a62000627565b9060020b9052565b620001a5899262000668565b98604282511015600014620001f1575062000177620001858a9462000168898c96620001586200014d620001dd620001999962000b80565b99509499505091939d96959450506200010f565b88620002058986939251938493846200031a565b0390f35b8380fd5b8280fd5b634e487b7160e01b600052604160045260246000fd5b60a0810190811067ffffffffffffffff8211176200024457604052565b62000211565b6060810190811067ffffffffffffffff8211176200024457604052565b90601f8019910116810190811067ffffffffffffffff8211176200024457604052565b60405190620002998262000227565b565b9062000299604051928362000267565b67ffffffffffffffff81116200024457601f01601f191660200190565b81601f820112156200031557803590620002e282620002ab565b92620002f2604051948562000267565b828452602083830101116200031557816000926020809301838601378301015290565b600080fd5b919091606081019281526020926060848301528251809152836080830193019060005b8181106200038657505050604081830391015281808451928381520193019160005b8281106200036e575050505090565b835160020b855293810193928101926001016200035f565b82516001600160a01b0316855293850193918501916001016200033d565b6001600160a01b038116036200031557565b34620003155760a03660031901126200031557604051620003d78162000227565b600435620003e581620003a4565b8152602435620003f581620003a4565b602082015260443562ffffff811681036200031557816200043a9160406200020594015260643560608201526084356200042f81620003a4565b608082015262000787565b604080519384526001600160a01b03909216602084015260020b908201529081906060820190565b3462000315576000366003190112620003155760206040516001600160a01b037f0000000000000000000000000000000000000000000000000000000000000000168152f35b3462000315576060366003190112620003155760443560043567ffffffffffffffff821162000315576200050d62000501620004f16001600160a01b03943690600401620002c8565b602080825183010191016200093f565b6001600160a01b031690565b906000811315620005c2575060a06200052860243562000957565b915b6004604051809581937f3850c7bd000000000000000000000000000000000000000000000000000000008352165afa8015620005bc57606092600090819262000581575b5060405192835260208301526040820152fd5b9050620005a9915060a03d8111620005b4575b620005a0818362000267565b81019062000995565b50505090386200056e565b503d62000594565b62000707565b620005cf60a09162000957565b916200052a565b67ffffffffffffffff8111620002445760051b60200190565b90620005fb82620005d6565b6200060a604051918262000267565b82815280926200061d601f1991620005d6565b0190602036910137565b80518210156200063c5760209160051b010190565b634e487b7160e01b600052603260045260246000fd5b634e487b7160e01b600052601160045260246000fd5b6000198114620006785760010190565b62000652565b919082604091031262000315576020825192015190565b9390919594926001600160a01b038093168552602096151587860152604085015216606083015260a060808301528051908160a084015260005b828110620006f257505060c09293506000838284010152601f8019910116010190565b81810186015184820160c001528501620006cf565b6040513d6000823e3d90fd5b3d1562000743573d906200072782620002ab565b9162000737604051938462000267565b82523d6000602084013e565b606090565b51908160020b82036200031557565b90816060910312620003155780519162000784604060208401516200077c81620003a4565b930162000748565b90565b600090600090600090620007a281516001600160a01b031690565b6020820191620007b983516001600160a01b031690565b90620007da6040938493620007d38585015162ffffff1690565b91620009e9565b936200080362000501620007f584516001600160a01b031690565b92516001600160a01b031690565b906001600160a01b039182809216109516906200082f608060608501519401516001600160a01b031690565b90811662000938575084156200091d576401000276a45b915b83516001600160a01b0383166020808301919091528152956000906200087060408962000267565b620008ab8651988996879586947fdd5a12d8000000000000000000000000000000000000000000000000000000008652306004870162000695565b03925af19182620008eb575b5050620008e657505050620008df620008cf62000713565b6020808251830101910162000757565b9192909190565b909192565b816200090f92903d1062000915575b62000906818362000267565b8101906200067e565b620008b7565b503d620008fa565b73fffd8963efd1fc6a506488495d951d5263988d2562000846565b9162000848565b908160209103126200031557516200078481620003a4565b7f80000000000000000000000000000000000000000000000000000000000000008114620006785760000390565b519061ffff821682036200031557565b908160a091031262000315578051620009ae81620003a4565b91620009bd6020830162000748565b91620009cc6040820162000985565b91620007846080620009e16060850162000985565b930162000985565b6001600160a01b039290828416848216101562000b465791925b80841690831610156200031557620007849262000501927fffffff000000000000000000000000000000000000000000000000000000000062000501936040519260208401946bffffffffffffffffffffffff19809260601b16865260601b16603484015260e81b166048820152602b815262000a80816200024a565b51902062000b2862000b37612d1f62000a9c602082016200029b565b818152602081019162000d93833951902060405192839160208301957f00000000000000000000000000000000000000000000000000000000000000008791605593917fff0000000000000000000000000000000000000000000000000000000000000084526bffffffffffffffffffffffff199060601b166001840152601583015260358201520190565b03601f19810183528262000267565b5190206001600160a01b031690565b9262000a03565b90601f82018092116200067857565b60170190816017116200067857565b51601319810190811162000678576017900490565b80516016199182820190828211620006785762000baa8262000ba28162000b4d565b101562000c2d565b62000bc3815162000bbb8462000b5c565b111562000c79565b6017830362000be15750505050604051600081526020810160405290565b601760405194601f8416801560051b9182828901019687010193010101905b80841062000c195750508252601f01601f191660405290565b909283518152602080910193019062000c00565b1562000c3557565b606460405162461bcd60e51b815260206004820152600e60248201527f736c6963655f6f766572666c6f770000000000000000000000000000000000006044820152fd5b1562000c8157565b606460405162461bcd60e51b815260206004820152601160248201527f736c6963655f6f75744f66426f756e64730000000000000000000000000000006044820152fd5b90601482511062000d3a57602082015160601c91601781511062000cf65762000cf360178201519162000d7e565b91565b606460405162461bcd60e51b815260206004820152601460248201527f746f55696e7432345f6f75744f66426f756e64730000000000000000000000006044820152fd5b606460405162461bcd60e51b815260206004820152601560248201527f746f416464726573735f6f75744f66426f756e647300000000000000000000006044820152fd5b602b81511062000d3a576037015160601c9056fe61012080604052346200019857630890357360e41b815260a090600090828160048185335af19182156200018c578091818091818096620000dc575b505061010094855260e05260c052835260805260405190612b5b9283620001c484396080518361130b015251828181610db5015281816118ff01528181611a4c01528181611f600152612354015260c051828181610ddd015281816112870152818161183d01528181611a7301526123e7015260e051828181610e71015281816112c7015261219d015251818181610ca001528181610e490152611aaa0152f35b94509450505050823d841162000184575b601f8101601f191683016001600160401b03811184821017620001705784918491604052810103126200016d575062000126816200019d565b9062000135602082016200019d565b9062000144604082016200019d565b906200016160806200015960608401620001b2565b9201620001b2565b9392919038806200003b565b80fd5b634e487b7160e01b83526041600452602483fd5b503d620000ed565b604051903d90823e3d90fd5b600080fd5b51906001600160a01b03821682036200019857565b519062ffffff82168203620001985756fe608080604052600436101561001357600080fd5b600090813560e01c9081630dfe168114611f41575080631a68650214611f1a578063252c09d714611ecc57806332148f6714611e205780633850c7bd14611dca5780633c8a7d8d14611b665780634614131914611b485780634a182392146119ba5780634f1eb3d8146116c2578063514ea4bf146116605780635339c2961461162a578063883bdbfd146114a4578063a34123a71461132f578063c45a0155146112eb578063d0c93a7c146112ab578063d21220a714611267578063dd5a12d814610cc4578063ddca3f4314610c84578063f305839914610c67578063f30dba9314610bf85763f637731d1461010857600080fd5b34610bf557602080600319360112610bf157610122611f84565b9060029182546001600160a01b0392838216610bc757838316926401000276a384101580610baa575b15610b665777ffffffffffffffffffffffffffffffffffffffff0000000090821b1680916001600160801b03821160071b9582871c9367ffffffffffffffff851160061b94851c9763ffffffff9889811160051b90811c61ffff811160041b90811c60ff811160031b90811c918d600f8411901b92831c9360019a8b60038711811b96871c1196171717171717179060809485831015600014610b525750607e1982018281116106c3571c5b607f1982019182138616610b2857800280607f1c8160ff1c1c800280607f1c8160ff1c1c800280607f1c8160ff1c1c800280607f1c8160ff1c1c800280607f1c8160ff1c1c800280607f1c8160ff1c1c80029081607f1c8260ff1c1c80029283607f1c8460ff1c1c80029485607f1c8660ff1c1c80029687607f1c8860ff1c1c80029889607f1c8a60ff1c1c80029a8b607f1c8c60ff1c1c80029c8d80607f1c9060ff1c1c800260cd1c6604000000000000169d60cc1c6608000000000000169c60cb1c6610000000000000169b60ca1c6620000000000000169a60c91c6640000000000000169960c81c6680000000000000169860c71c670100000000000000169760c61c670200000000000000169660c51c670400000000000000169560c41c670800000000000000169460c31c671000000000000000169360c21c672000000000000000169260c11c674000000000000000169160c01c678000000000000000169060401b171717171717171717171717171790693627a301d71055774c8591828102928184051490151715610b3e577ffffffffffffffffffffffffffffffffffd709b7e5480fba5a50fed5e62ffc55682018281138616610b2857841d890b916fdb2df09e81959a81455e260799a0632f908b8282019283129112908015821691151617610b14578a929190851d8a0b908183036104c957505094600160d81b979462ffffff60a01b9461ffff60d81b1998946b0100000000000000000000007fffffffffff00000000000000000000000000000000000000000000000000000095600160c81b9a995b421685604080516104558161203e565b838152848782015201526affffffffffffff0000000060075492851b16916bffffffffffffffffffffffff19161717176007556040519061049582612022565b868252888d0b908201528c6040820152826060820152015216179160a01b161761ffff60b81b8660b81b1617171617905580f35b9092508a831215610b0e576104dd83612297565b620d89e88111610acb578b9392919087811615610aa25770ffffffffffffffffffffffffffffffffff6ffffcb933bd6fad37aa2d162d1a5940015b16908c8116610a6d575b60048116610a38575b60088116610a03575b601081166109ce575b868116610999575b60408116610964575b87811661092f575b61010081166108fa575b61020081166108c5575b6104008116610890575b610800811661085b575b6110008116610826575b61200081166107f1575b61400081166107bc575b6180008116610787575b620100008116610752575b62020000811661071e575b6204000081166106d7575b6208000016610694575b848413610667575b946b01000000000000000000000085600160c81b9a958d9a958d600160d81b9f9661ffff60d81b199f9b61064a9062ffffff60a01b9e997fffffffffff0000000000000000000000000000000000000000000000000000009d5081161560001461065f5760ff875b1690891c61209d565b161161065857505b99610445565b9050610652565b60ff8b610641565b80919293945015610680578b93929190600019046105d9565b60248c634e487b7160e01b81526012600452fd5b90919293506b048a170391f7dc42444e8fa2908181029181830414901517156106c357908b939291861c6105d1565b60248c634e487b7160e01b81526011600452fd5b91929394506d2216e584f5fa1ea926041bedfe989081810291818304149015171561070a578c9493929190871c906105c7565b60248d634e487b7160e01b81526011600452fd5b91929394506e5d6af8dedb81196699c329225ee6049081810291818304149015171561070a57908c94939291871c906105bc565b91929394506f09aa508b5b7a84e1c677de54f3e99bc99081810291818304149015171561070a57908c94939291871c906105b1565b91929394506f31be135f97d08fd981231505542fcfa69081810291818304149015171561070a57908c94939291871c906105a6565b91929394506f70d869a156d2a1b890bb3df62baf32f79081810291818304149015171561070a57908c94939291871c9061059c565b91929394506fa9f746462d870fdf8a65dc1f90e061e59081810291818304149015171561070a57908c94939291871c90610592565b91929394506fd097f3bdfd2022b8845ad8f792aa58259081810291818304149015171561070a57908c94939291871c90610588565b91929394506fe7159475a2c29b7443b29c7fa6e889d99081810291818304149015171561070a57908c94939291871c9061057e565b91929394506ff3392b0822b70005940c7a398e4b70f39081810291818304149015171561070a57908c94939291871c90610574565b91929394506ff987a7253ac413176f2b074cf7815e549081810291818304149015171561070a57908c94939291871c9061056a565b91929394506ffcbe86c7900a88aedcffc83b479aa3a49081810291818304149015171561070a57908c94939291871c90610560565b91929394506ffe5dee046a99a2a811c461f1969c30539081810291818304149015171561070a57908c94939291871c90610556565b91929394506fff2ea16466c96a3843ec78b326b528619081810291818304149015171561070a57908c94939291871c9061054e565b91929394506fff973b41fa98c081472e6896dfb254c09081810291818304149015171561070a57908c94939291871c90610545565b91929394506fffcb9843d60f6159c9db58835c9266449081810291818304149015171561070a57908c94939291871c9061053d565b91929394506fffe5caca7e10e4e61c3624eaa0941cd09081810291818304149015171561070a57908c94939291871c90610534565b91929394506ffff2e50f5f656932ef12357cf3c7fdcc9081810291818304149015171561070a57908c94939291871c9061052b565b91929394506ffff97272373d413259a46990580e213a9081810291818304149015171561070a57908c94939291871c90610522565b70ffffffffffffffffffffffffffffffffff700100000000000000000000000000000000610518565b606485886040519162461bcd60e51b8352600483015260248201527f54000000000000000000000000000000000000000000000000000000000000006044820152fd5b826104dd565b60248b634e487b7160e01b81526011600452fd5b634e487b7160e01b600052601160045260246000fd5b60248a634e487b7160e01b81526011600452fd5b905081607f03607f81116106c3571b6101f7565b6064826040519062461bcd60e51b82526004820152600160248201527f52000000000000000000000000000000000000000000000000000000000000006044820152fd5b5073fffd8963efd1fc6a506488495d951d5263988d26841061014b565b60046040517f0dc149f0000000000000000000000000000000000000000000000000000000008152fd5b5080fd5b80fd5b5034610bf5576020366003190112610bf557604060a091610c17611fba565b60020b81526004602052208054906001810154600f0b9060036002820154910154916001600160801b036040519460ff81161515865260081c166020850152604084015260608301526080820152f35b5034610bf55780600319360112610bf55760209054604051908152f35b5034610bf55780600319360112610bf557602060405162ffffff7f0000000000000000000000000000000000000000000000000000000000000000168152f35b5034610bf55760a0366003190112610bf557610cde611f84565b90602435151560243503610bf5576064356001600160a01b03811681036112625760843567ffffffffffffffff81116110e457610d1f903690600401611fe0565b929060405191610d2e83612022565b6002546001600160a01b03811684528060a01c60020b602085015261ffff8160b81c16604085015261ffff8160c81c16606085015261ffff8160d81c1660808501526001600160801b0360035416825490600154926001600160a01b03604051987f27954896000000000000000000000000000000000000000000000000000000008a52817f00000000000000000000000000000000000000000000000000000000000000001660048b0152817f00000000000000000000000000000000000000000000000000000000000000001660248b0152818c1660448b0152602435151560648b015260443560848b01521660a48901526001600160a01b03811660c489015260a01c60020b60e488015261010487015262ffffff807f0000000000000000000000000000000000000000000000000000000000000000166101248801527f000000000000000000000000000000000000000000000000000000000000000016610144870152600561016487015260046101848701526101a48601526101c485015260e0846101e48173__$d17d1fe473380c67ec84e69d3dc368d5c4$__5af4948515611255578195829583848597869387956111c8575b50602081015160020b90818360020b141560001461118e5792610f3c62ffffff60a01b928561ffff604061ffff60b81b980151169161ffff608081606085015116930151169263ffffffff42169061248b565b9490917fffffffffff0000000000000000000000000000000000000000000000000000007affff000000000000000000000000000000000000000000000000006001600160a01b0360025493169760c81b169116179160b81b16179160a01b1617176002555b6001600160801b03600354961686816001600160801b0381991603611170575b50508355600155602435156110e857610fd961232f565b92333b156110e457611004918391604051938492839263fa461e3360e01b84528a8c600486016122f8565b038183335af180156110d957908692916110c1575b50506110249161209d565b61102c61232f565b10611097576001600160a01b036040945b60025486519386855285602086015283821688860152606085015260a01c60020b608084015216907fc42079f94a6350d7e6235f29174924f928cc2ac818eb64fed8004e115fbcca6760a03392a382519182526020820152f35b60046040517f098fb561000000000000000000000000000000000000000000000000000000008152fd5b8192506110cd9061200e565b610bf557808591611019565b6040513d84823e3d90fd5b8280fd5b6110f06123c2565b92333b156110e45761111b918391604051938492839263fa461e3360e01b84528a8c600486016122f8565b038183335af180156110d95790859291611158575b505061113b9161209d565b6111436123c2565b10611097576001600160a01b0360409461103d565b8192506111649061200e565b610bf557808491611130565b6fffffffffffffffffffffffffffffffff1916176003558538610fc2565b5050506001600160a01b03167fffffffffffffffffffffffff00000000000000000000000000000000000000006002541617600255610fa2565b9850995050505050935060e0833d60e01161124d575b816111eb60e0938361205a565b81010312610bf5578251936020840151956040850151956001600160a01b03871687036112495760608601518060020b81036112455761122d608088016120aa565b60c060a0890151980151929998919097929338610ee9565b8480fd5b8380fd5b3d91506111de565b50604051903d90823e3d90fd5b600080fd5b5034610bf55780600319360112610bf55760206040516001600160a01b037f0000000000000000000000000000000000000000000000000000000000000000168152f35b5034610bf55780600319360112610bf557602060405162ffffff7f0000000000000000000000000000000000000000000000000000000000000000168152f35b5034610bf55780600319360112610bf55760206040516001600160a01b037f0000000000000000000000000000000000000000000000000000000000000000168152f35b5034610bf5576060366003190112610bf557611349611fba565b611351611f9a565b604435906001600160801b038083168093036112625782600f0b7fffffffffffffffffffffffffffffffff80000000000000000000000000000000811461149057916113b593916113ac6113bb9694604098038386336120be565b97919690612297565b96612297565b948615801590611487575b611417575b50508551918252846020830152838683015260020b9160020b907f0c396cd989a39f4459b5fa1aed6a9a8dcdbc45908acfd67e028cd568da98982c60603392a482519182526020820152f35b60030190815461146761143e611431848b168585166122c4565b92848a169060801c6122c4565b84546001600160801b031660809190911b6fffffffffffffffffffffffffffffffff1916178455565b166fffffffffffffffffffffffffffffffff1982541617905538806113cb565b508515156113c6565b602486634e487b7160e01b81526011600452fd5b5034610bf557602080600319360112610bf1576004359167ffffffffffffffff808411610bf15736602385011215610bf1578360040135908111610bf157602493848260051b8201013681116112495763ffffffff90814216600254928360a01c60020b9261ffff808660b81c169560c81c169561152188612317565b9761152f604051998a61205a565b88528a018988015b82821061160e5750505085519561156661155088612317565b9761155e604051998a61205a565b808952612317565b878a0190601f1901368237885b82518110156115c9576115958888888761158d86896126f3565b511689612707565b61159f828b6126f3565b9060060b905260001981146115b657600101611573565b8b8a634e487b7160e01b81526011600452fd5b888b838c60405193838594850191818652518092526040850193925b8281106115f457505050500390f35b835160060b855286955093810193928101926001016115e5565b81358481168103611626578152908a01908a01611537565b8a80fd5b5034610bf5576020366003190112610bf5576004358060010b809103610bf1578160409160209352600583522054604051908152f35b5034610bf5576020366003190112610bf557604060a09160043581526006602052206001600160801b039081815416916001820154916003600282015491015492604051948552602085015260408401528116606083015260801c6080820152f35b5034610bf55760a0366003190112610bf5576116dc611f84565b6116e4611f9a565b916116ed611faa565b926116f6611fca565b92608435946001600160801b0393848716948588036112625760405160208101903360601b82528660e81b60348201528460e81b6037820152601a81526040810181811067ffffffffffffffff8211176119a45760405251902082526006602052600360408320019788549682881698898482161160001461199e575088915b8860801c8092116000146119965750965b82821698838a6118d3575b50505050851694856117f8575b5050604095506001600160a01b03865192168252846020830152838683015260020b9160020b907fa89c1c8a741251492622c95237828c75d1dbb03ea956f09e3792ff2a14f4fe6260603392a482519182526020820152f35b6118338861180b83859b5460801c6122df565b6001600160801b036fffffffffffffffffffffffffffffffff1983549260801b169116179055565b6001600160a01b037f00000000000000000000000000000000000000000000000000000000000000001690813b156110e45760405163a9059cbb60e01b81526001600160a01b03861660048201526001600160801b0391909116602482015291908290604490829084905af180156118c8576118b0575b8061179f565b6118ba879161200e565b6118c457856118aa565b8580fd5b6040513d89823e3d90fd5b6118ef846fffffffffffffffffffffffffffffffff19936122df565b1691161789556001600160a01b037f00000000000000000000000000000000000000000000000000000000000000001690813b156112495760405163a9059cbb60e01b81526001600160a01b03871660048201526001600160801b039190911660248201529083908290604490829084905af1801561198b57908391611977575b8083611792565b6119809061200e565b610bf1578138611970565b6040513d85823e3d90fd5b905096611787565b91611776565b634e487b7160e01b600052604160045260246000fd5b5034610bf5576060366003190112610bf5576004356024358260443567ffffffffffffffff8111610bf1576119f3903690600401611fe0565b919073__$f9857a4711eec40b8ae03426d7155b8866$__803b156110e457611ae6936040518095819482937f8d0d22a00000000000000000000000000000000000000000000000000000000084526001600160a01b03807f00000000000000000000000000000000000000000000000000000000000000001660048601527f00000000000000000000000000000000000000000000000000000000000000001660248501528a604485015289606485015262ffffff7f00000000000000000000000000000000000000000000000000000000000000001660848501523360a485015260e060c485015260e484019161207c565b03915af48015611b3d57611b2a575b5060405191825260208201527f1c1db1f1d6a01e51fec24bb54087b65fe5430f692280e70d92f718eb72ae76b760403392a280f35b611b369093919361200e565b9138611af5565b6040513d86823e3d90fd5b5034610bf55780600319360112610bf5576020600154604051908152f35b5034610bf55760a0366003190112610bf557611b80611f84565b90611b89611f9a565b611b91611faa565b611b99611fca565b60843567ffffffffffffffff811161124557611bb9903690600401611fe0565b93908360020b938260020b93858512801590611dbd575b8015611db1575b611d87576001600160801b0316928315611d5d57611bfa9184600f0b918a6120be565b969150968081928915159283611d4d575b8915159586611d3d575b333b15610bf1578a8c611c69849360405196879485947fd34879970000000000000000000000000000000000000000000000000000000086526004860152602485015260606044850152606484019161207c565b038183335af1908115611d315750908a9291611d22575b5082611d08575b505061109757859082611cee575b5050611097577f7a53080ba414158be7ec69b987b5fb7d07dee101fe85488f0853ae16239d0bde60806001600160a01b036040988951943386526020860152888a8601528760608601521692a482519182526020820152f35b611cf8925061209d565b611d006123c2565b108438611c95565b611d12925061209d565b611d1a61232f565b108738611c87565b611d2b9061200e565b38611c80565b604051903d90823e3d90fd5b9450611d476123c2565b94611c15565b9150611d5761232f565b91611c0b565b60046040517f10074548000000000000000000000000000000000000000000000000000000008152fd5b60046040517f064847d0000000000000000000000000000000000000000000000000000000008152fd5b50620d89e88613611bd7565b50620d89e7198512611bd0565b5034610bf55780600319360112610bf55760a0600254604051906001600160a01b038116825280831c60020b602083015261ffff90818160b81c166040840152818160c81c16606084015260d81c166080820152f35b5034610bf5576020366003190112610bf55760043561ffff80821682036110e457611e538160025460d81c16928361259d565b90811691808303611e62578380f35b7fac49e518f90a358f652e4400164f05a5d8f7e35e7747279bc3a93dbf584e125a9260409261ffff60d81b197cffff0000000000000000000000000000000000000000000000000000006002549260d81b1691161760025582519182526020820152a13880808380f35b5034610bf5576020366003190112610bf55760043561ffff811015610bf1576060906007015460ff6040519163ffffffff811683528060201c60060b602084015260581c1615156040820152f35b5034610bf55780600319360112610bf55760206001600160801b0360035416604051908152f35b905034610bf15781600319360112610bf1576020906001600160a01b037f0000000000000000000000000000000000000000000000000000000000000000168152f35b600435906001600160a01b038216820361126257565b602435908160020b820361126257565b604435908160020b820361126257565b600435908160020b820361126257565b606435906001600160801b038216820361126257565b9181601f840112156112625782359167ffffffffffffffff8311611262576020838186019501011161126257565b67ffffffffffffffff81116119a457604052565b60a0810190811067ffffffffffffffff8211176119a457604052565b6060810190811067ffffffffffffffff8211176119a457604052565b90601f8019910116810190811067ffffffffffffffff8211176119a457604052565b908060209392818452848401376000828201840152601f01601f1916010190565b91908201809211610b2857565b51906001600160801b038216820361126257565b9390916040938451608081019181831067ffffffffffffffff8411176119a4577f4d8b54ac0000000000000000000000000000000000000000000000000000000095879384526001600160a01b0380991683526020830191600291820b835284840195820b86526060840190600f0b8152898254916001600160801b039788600354169560009d8e54986001549a519d8e52511660048d015251850b60248c015251840b60448b015251600f0b60648a0152600660848a0152600460a48a0152600560c48a0152811660e489015260a01c900b61010487015262ffffff7f0000000000000000000000000000000000000000000000000000000000000000166101248701526101448601526101648501526101848401526080836101a48173__$ee58cc6b4b385dce4aa659b5a6a51152a5$__5af494851561228c5780948194828098612238575b505050929394816003549116918116820361221f575050565b6fffffffffffffffffffffffffffffffff191617600355565b93975094509450506080833d8211612284575b816122586080938361205a565b81010312610bf55750815193612279606060208501519585015194016120aa565b949392388080612206565b3d915061224b565b8451903d90823e3d90fd5b7f80000000000000000000000000000000000000000000000000000000000000008114610b285760000390565b9190916001600160801b0380809416911601918211610b2857565b6001600160801b039182169082160391908211610b2857565b612314949260609282526020820152816040820152019161207c565b90565b67ffffffffffffffff81116119a45760051b60200190565b6040516370a0823160e01b815230600482015260208160248160006001600160a01b037f0000000000000000000000000000000000000000000000000000000000000000165af19081156123b657600091612388575090565b906020823d82116123ae575b816123a16020938361205a565b81010312610bf557505190565b3d9150612394565b6040513d6000823e3d90fd5b6040516370a0823160e01b815230600482015260208160248160006001600160a01b037f0000000000000000000000000000000000000000000000000000000000000000165af19081156123b657600091612388575090565b906040516124288161203e565b604060ff82945463ffffffff811684528060201c60060b602085015260581c161515910152565b90600161ffff80931601918211610b2857565b9061ffff80911691821561247557160690565b634e487b7160e01b600052601260045260246000fd5b94929161ffff918287101561254b576124a68760070161241b565b9663ffffffff9485895116868416146125925784811680868a1611908161256b575b50916124e8986124ed926124f3969594600014612561575098899161244f565b612462565b9761268d565b9085101561254b5784600701918151168254906affffffffffffff000000006bff00000000000000000000006040602086015160201b950151151560581b169316916bffffffffffffffffffffffff19161717179055565b634e487b7160e01b600052603260045260246000fd5b905098899161244f565b905060009493929194190190858211610b28579293919291908516858316146124e86124c8565b909750955050505050565b61ffff9081831690828116821115612614575b81838216106125bf5750505090565b828110156125ff5760078101805463ffffffff1916600117905582168083146125ea576001016125b0565b60246000634e487b7160e01b81526011600452fd5b60246000634e487b7160e01b81526032600452fd5b9250505090565b604051906126288261203e565b60006040838281528260208201520152565b63ffffffff9182169082160391908211610b2857565b9060060b9060060b02908160060b918203610b2857565b9060060b9060060b0190667fffffffffffff198212667fffffffffffff831317610b2857565b6126d09092919261269c61261b565b506126c763ffffffff936020856126b6818651168961263a565b169301519260060b9060020b612650565b9060060b612667565b90604051926126de8461203e565b16825260060b60208201526001604082015290565b805182101561254b5760209160051b010190565b939192909263ffffffff93848116156127f3579061272a6127319493928761263a565b8096612837565b909180835116818516818114600014612754575050505060209150015160060b90565b828495945116809114600014612774575050505060209150015160060b90565b91612794816127886020979594889561263a565b1696828651169061263a565b1692015160060b928391015160060b0392667fffffffffffff1990667fffffffffffff851382861217610b285760060b9360060b908415612475578114600019851416610b2857612314936127ed9260060b9105612650565b90612667565b5091509261ffff84101561254b5761280f60209460070161241b565b928084511690821603612827575b5050015160060b90565b6128309261268d565b388061281d565b90919461284261261b565b5061284b61261b565b9361ffff968782101561254b5760079561286683880161241b565b63ffffffff9261287a888584511689612aac565b612a665750505061288e876124e88461244f565b8881101561254b576128a190870161241b565b9160409286838583015115612a30575b6128bd92511687612aac565b156129ed57886128e3896124e883946128d461261b565b506128dd61261b565b5061244f565b169716956128f1878961209d565b60001998818a01918211610b28575b61290a828261209d565b91600192831c9261291b8b85612b1b565b8d81101561254b5761292e90860161241b565b9087820151156129d757840190818511610b28578d9061294e8d84612b1b565b9182101561254b576129628b92880161241b565b908c612972818b84511686612aac565b938491826129c1575b50506129ae5750506129a1575050898201918211610b285761290a91905b909150612900565b90915061290a9250612999565b9e509c50979a5050505050505050505050565b6129d092508b85511691612aac565b8c8e61297b565b919250508201809211610b285761290a91612999565b6064835162461bcd60e51b815260206004820152600360248201527f4f4c4400000000000000000000000000000000000000000000000000000000006044820152fd5b6128bd92508551612a408161203e565b60ff8b5483811683528060201c60060b602084015260581c1615158782015292506128b1565b96955096509750919550508084511690821614600014612a865750509190565b8261231493955061268d565b9064010000000064ffffffffff80931601918211610b2857565b63ffffffff808092169216828111801580612b0f575b612b045715612af557925b1690811115612ae7575b64ffffffffff8091169116111590565b612af090612a92565b612ad7565b612afe90612a92565b92612acd565b509290915016101590565b50838386161115612ac2565b811561247557069056fea264697066735822122072f3b235227dbfb7380342dcdbbb3a9e98e0a87ef1bdc140f80154ba3d82b1d764736f6c63430008130033a264697066735822122043140ead0a5e4437fd3df344e2da450b9f73697012c0749e5a34d1317d142f6664736f6c63430008130033","linkReferences":{"src/libraries/FlashLoanHandler.sol":{"FlashLoanHandler":[{"start":10715,"length":20}]},"src/libraries/PositionHandler.sol":{"PositionHandler":[{"start":12738,"length":20}]},"src/libraries/SwapHandler.sol":{"SwapHandler":[{"start":7840,"length":20}]}}},"methodIdentifiers":{"factory()":"c45a0155","quote(bytes,uint256)":"33224ae1","quoteSingle((address,address,uint24,uint256,uint160))":"402358a5","uniswapV3SwapCallback(int256,int256,bytes)":"fa461e33"},"id":31}