{"abi":[{"type":"constructor","inputs":[{"name":"factoryAddress","type":"address","internalType":"address"}],"stateMutability":"nonpayable"},{"type":"function","name":"addLiquidity","inputs":[{"name":"params","type":"tuple","internalType":"struct UniswapV3NFTManager.AddLiquidityParams","components":[{"name":"tokenId","type":"uint256","internalType":"uint256"},{"name":"amount0Desired","type":"uint256","internalType":"uint256"},{"name":"amount1Desired","type":"uint256","internalType":"uint256"},{"name":"amount0Min","type":"uint256","internalType":"uint256"},{"name":"amount1Min","type":"uint256","internalType":"uint256"}]}],"outputs":[{"name":"liquidity","type":"uint128","internalType":"uint128"},{"name":"amount0","type":"uint256","internalType":"uint256"},{"name":"amount1","type":"uint256","internalType":"uint256"}],"stateMutability":"nonpayable"},{"type":"function","name":"approve","inputs":[{"name":"spender","type":"address","internalType":"address"},{"name":"id","type":"uint256","internalType":"uint256"}],"outputs":[],"stateMutability":"nonpayable"},{"type":"function","name":"balanceOf","inputs":[{"name":"owner","type":"address","internalType":"address"}],"outputs":[{"name":"","type":"uint256","internalType":"uint256"}],"stateMutability":"view"},{"type":"function","name":"burn","inputs":[{"name":"tokenId","type":"uint256","internalType":"uint256"}],"outputs":[],"stateMutability":"nonpayable"},{"type":"function","name":"collect","inputs":[{"name":"params","type":"tuple","internalType":"struct UniswapV3NFTManager.CollectParams","components":[{"name":"tokenId","type":"uint256","internalType":"uint256"},{"name":"amount0","type":"uint128","internalType":"uint128"},{"name":"amount1","type":"uint128","internalType":"uint128"}]}],"outputs":[{"name":"amount0","type":"uint128","internalType":"uint128"},{"name":"amount1","type":"uint128","internalType":"uint128"}],"stateMutability":"nonpayable"},{"type":"function","name":"factory","inputs":[],"outputs":[{"name":"","type":"address","internalType":"address"}],"stateMutability":"view"},{"type":"function","name":"getApproved","inputs":[{"name":"","type":"uint256","internalType":"uint256"}],"outputs":[{"name":"","type":"address","internalType":"address"}],"stateMutability":"view"},{"type":"function","name":"isApprovedForAll","inputs":[{"name":"","type":"address","internalType":"address"},{"name":"","type":"address","internalType":"address"}],"outputs":[{"name":"","type":"bool","internalType":"bool"}],"stateMutability":"view"},{"type":"function","name":"mint","inputs":[{"name":"params","type":"tuple","internalType":"struct UniswapV3NFTManager.MintParams","components":[{"name":"recipient","type":"address","internalType":"address"},{"name":"tokenA","type":"address","internalType":"address"},{"name":"tokenB","type":"address","internalType":"address"},{"name":"fee","type":"uint24","internalType":"uint24"},{"name":"lowerTick","type":"int24","internalType":"int24"},{"name":"upperTick","type":"int24","internalType":"int24"},{"name":"amount0Desired","type":"uint256","internalType":"uint256"},{"name":"amount1Desired","type":"uint256","internalType":"uint256"},{"name":"amount0Min","type":"uint256","internalType":"uint256"},{"name":"amount1Min","type":"uint256","internalType":"uint256"}]}],"outputs":[{"name":"tokenId","type":"uint256","internalType":"uint256"}],"stateMutability":"nonpayable"},{"type":"function","name":"name","inputs":[],"outputs":[{"name":"","type":"string","internalType":"string"}],"stateMutability":"view"},{"type":"function","name":"ownerOf","inputs":[{"name":"id","type":"uint256","internalType":"uint256"}],"outputs":[{"name":"owner","type":"address","internalType":"address"}],"stateMutability":"view"},{"type":"function","name":"positions","inputs":[{"name":"","type":"uint256","internalType":"uint256"}],"outputs":[{"name":"pool","type":"address","internalType":"address"},{"name":"lowerTick","type":"int24","internalType":"int24"},{"name":"upperTick","type":"int24","internalType":"int24"}],"stateMutability":"view"},{"type":"function","name":"removeLiquidity","inputs":[{"name":"params","type":"tuple","internalType":"struct UniswapV3NFTManager.RemoveLiquidityParams","components":[{"name":"tokenId","type":"uint256","internalType":"uint256"},{"name":"liquidity","type":"uint128","internalType":"uint128"}]}],"outputs":[{"name":"amount0","type":"uint256","internalType":"uint256"},{"name":"amount1","type":"uint256","internalType":"uint256"}],"stateMutability":"nonpayable"},{"type":"function","name":"safeTransferFrom","inputs":[{"name":"from","type":"address","internalType":"address"},{"name":"to","type":"address","internalType":"address"},{"name":"id","type":"uint256","internalType":"uint256"}],"outputs":[],"stateMutability":"nonpayable"},{"type":"function","name":"safeTransferFrom","inputs":[{"name":"from","type":"address","internalType":"address"},{"name":"to","type":"address","internalType":"address"},{"name":"id","type":"uint256","internalType":"uint256"},{"name":"data","type":"bytes","internalType":"bytes"}],"outputs":[],"stateMutability":"nonpayable"},{"type":"function","name":"setApprovalForAll","inputs":[{"name":"operator","type":"address","internalType":"address"},{"name":"approved","type":"bool","internalType":"bool"}],"outputs":[],"stateMutability":"nonpayable"},{"type":"function","name":"supportsInterface","inputs":[{"name":"interfaceId","type":"bytes4","internalType":"bytes4"}],"outputs":[{"name":"","type":"bool","internalType":"bool"}],"stateMutability":"view"},{"type":"function","name":"symbol","inputs":[],"outputs":[{"name":"","type":"string","internalType":"string"}],"stateMutability":"view"},{"type":"function","name":"tokenURI","inputs":[{"name":"tokenId","type":"uint256","internalType":"uint256"}],"outputs":[{"name":"","type":"string","internalType":"string"}],"stateMutability":"view"},{"type":"function","name":"totalSupply","inputs":[],"outputs":[{"name":"","type":"uint256","internalType":"uint256"}],"stateMutability":"view"},{"type":"function","name":"transferFrom","inputs":[{"name":"from","type":"address","internalType":"address"},{"name":"to","type":"address","internalType":"address"},{"name":"id","type":"uint256","internalType":"uint256"}],"outputs":[],"stateMutability":"nonpayable"},{"type":"function","name":"uniswapV3MintCallback","inputs":[{"name":"amount0","type":"uint256","internalType":"uint256"},{"name":"amount1","type":"uint256","internalType":"uint256"},{"name":"data","type":"bytes","internalType":"bytes"}],"outputs":[],"stateMutability":"nonpayable"},{"type":"event","name":"AddLiquidity","inputs":[{"name":"tokenId","type":"uint256","indexed":true,"internalType":"uint256"},{"name":"liquidity","type":"uint128","indexed":false,"internalType":"uint128"},{"name":"amount0","type":"uint256","indexed":false,"internalType":"uint256"},{"name":"amount1","type":"uint256","indexed":false,"internalType":"uint256"}],"anonymous":false},{"type":"event","name":"Approval","inputs":[{"name":"owner","type":"address","indexed":true,"internalType":"address"},{"name":"spender","type":"address","indexed":true,"internalType":"address"},{"name":"id","type":"uint256","indexed":true,"internalType":"uint256"}],"anonymous":false},{"type":"event","name":"ApprovalForAll","inputs":[{"name":"owner","type":"address","indexed":true,"internalType":"address"},{"name":"operator","type":"address","indexed":true,"internalType":"address"},{"name":"approved","type":"bool","indexed":false,"internalType":"bool"}],"anonymous":false},{"type":"event","name":"RemoveLiquidity","inputs":[{"name":"tokenId","type":"uint256","indexed":true,"internalType":"uint256"},{"name":"liquidity","type":"uint128","indexed":false,"internalType":"uint128"},{"name":"amount0","type":"uint256","indexed":false,"internalType":"uint256"},{"name":"amount1","type":"uint256","indexed":false,"internalType":"uint256"}],"anonymous":false},{"type":"event","name":"Transfer","inputs":[{"name":"from","type":"address","indexed":true,"internalType":"address"},{"name":"to","type":"address","indexed":true,"internalType":"address"},{"name":"id","type":"uint256","indexed":true,"internalType":"uint256"}],"anonymous":false},{"type":"error","name":"NotAuthorized","inputs":[]},{"type":"error","name":"NotEnoughLiquidity","inputs":[]},{"type":"error","name":"PRBMath_MulDiv_Overflow","inputs":[{"name":"x","type":"uint256","internalType":"uint256"},{"name":"y","type":"uint256","internalType":"uint256"},{"name":"denominator","type":"uint256","internalType":"uint256"}]},{"type":"error","name":"PositionNotCleared","inputs":[]},{"type":"error","name":"SlippageCheckFailed","inputs":[{"name":"amount0","type":"uint256","internalType":"uint256"},{"name":"amount1","type":"uint256","internalType":"uint256"}]},{"type":"error","name":"WrongToken","inputs":[]}],"bytecode":{"object":"0x60a0346200036a57601f601f196001600160401b0362006c6338819003848101841686018381118782101762000354578692829160405283396020958691810103126200036a5751926001600160a01b03841684036200036a57620000636200036f565b92601784527f556e69737761705633204e465420506f736974696f6e7300000000000000000086850152620000976200036f565b906005825264554e49563360d81b8783015284519084821162000354576000918254966001978881811c9116801562000349575b8b8210146200033557908187849311620002e2575b508a908783116001146200027f57859262000273575b5050600019600383901b1c191690871b1782555b82519485116200025f5785548681811c9116801562000254575b898210146200024057848111620001f8575b508793851160011462000193575083949596509262000187575b5050600019600383901b1c191690821b1790555b6080526040516168d390816200039082396080518181816102a8015261141c0152f35b01519050388062000150565b8493929193169685845280842093905b888210620001e05750508385969710620001c6575b505050811b01905562000164565b015160001960f88460031b161c19169055388080620001b8565b808785968294968601518155019501930190620001a3565b8683528883208580880160051c8201928b891062000236575b0160051c019087905b8281106200022a57505062000136565b8481550187906200021a565b9250819262000211565b634e487b7160e01b83526022600452602483fd5b90607f169062000124565b634e487b7160e01b82526041600452602482fd5b015190503880620000f6565b90848a9416918680528c8720928d88905b828210620002ca5750508411620002b0575b505050811b0182556200010a565b015160001960f88460031b161c19169055388080620002a2565b8385015186558d979095019493840193018e62000290565b9091508480528a85208780850160051c8201928d86106200032b575b918b91869594930160051c01915b8281106200031c575050620000e0565b8781558594508b91016200030c565b92508192620002fe565b634e487b7160e01b85526022600452602485fd5b90607f1690620000cb565b634e487b7160e01b600052604160045260246000fd5b600080fd5b60408051919082016001600160401b03811183821017620003545760405256fe608080604052600490813610156200001657600080fd5b600091823560e01c91826301ffc9a714620023c95750816306fdde0314620022fc578163081812fc14620022c8578163095ea7b314620021ff57816312ba95ee1462001f0657816318160ddd1462001ee657816323b872dd1462001ec957816342842e0e1462001df957816342966c681462001b8e5781634caad3961462001a475781635f032ef414620018345781636352211e146200180157816370a08231146200177757816395d89b41146200165b57816399fbab88146200160d578163a22cb4651462001580578163b88d4fde1462001440578163c45a015514620013fa578163c87b56dd1462000716578163d34879971462000567578163e7dd4c5a146200018a575063e985e9c5146200012d57600080fd5b346200018757604036600319011262000187576200014a620025b2565b604062000156620025c9565b926001600160a01b0380931681526005602052209116600052602052602060ff604060002054166040519015158152f35b80fd5b90503462000563576101403660031901126200056357602435916001600160a01b03808416938481036200054f57604435908282168083036200054f576064359662ffffff881688036200055f57101562000558575b828216838216101562000554579082916040517fffffff0000000000000000000000000000000000000000000000000000000000602098898301936bffffffffffffffffffffffff199586809260601b16865260601b16603484015260e81b166048820152602b8152620002548162002487565b519020612d1f6040516200026b8983018262002543565b8181528881019162003b7f833951902060405191888301937fff0000000000000000000000000000000000000000000000000000000000000085527f000000000000000000000000000000000000000000000000000000000000000060601b1660218401526035830152605582015260558152620002e981620024ec565b51902016620002f76200293a565b9062000350620003066200294b565b604051906200031582620024ba565b838252600294850b89830152840b604082015260c435606082015260e43560808201526101043560a08201526101243560c082015262002a22565b93919490956007549762000364896200295c565b6007558035908382168092036200054f576200038282151562002734565b898352848b52836040842054166200050c57509289899896936040848b8862000501997f22fb3c4728e7cc5dd64003f4267d8fb1eb2580f5598050868300738a823d70479d9b985260038652838320600181540190558183528686528383208173ffffffffffffffffffffffffffffffffffffffff19825416179055827fddf252ad1be2c89b69c2b068fc378daa952ba7f163c4a11628f55a4df523b3ef8180a4620004306006546200295c565b60065560086200043f6200293a565b946200044a6200294b565b845198620004588a62002487565b895281890196880b8752848901970b87528d835252209351167fffffffffffff000000000000000000000000000000000000000000000000000076ffffff00000000000000000000000000000000000000008554935160a01b945160b81b79ffffff000000000000000000000000000000000000000000000016941692161717179055604051938493846040919493926001600160801b03606083019616825260208201520152565b0390a2604051908152f35b6064908b6040519162461bcd60e51b8352820152600e60248201527f414c52454144595f4d494e5445440000000000000000000000000000000000006044820152fd5b600080fd5b8380fd5b90620001e0565b8580fd5b5080fd5b82346200018757606036600319011262000187576044359167ffffffffffffffff83116200056357620005a06060933690830162002644565b90809491810103126200056357604051620005bb8162002487565b620005c684620025e0565b8082526040620005ed81620005de60208901620025e0565b976020860198895201620025e0565b9201908282526001600160a01b03809116803b156200055f57856040518092818381620006667f23b872dd000000000000000000000000000000000000000000000000000000009a8b83528c35908d8b3392169085016040919493929460608201956001600160a01b0380921683521660208201520152565b03925af180156200070b57620006f5575b50808596511691511690803b15620006f157604080519384526001600160a01b039092169383019384523360208501526024359184019190915290918391839182908490829060600103925af18015620006e657620006d35750f35b620006de90620024d7565b620001875780f35b6040513d84823e3d90fd5b8480fd5b9462000703829796620024d7565b949562000677565b6040513d88823e3d90fd5b9050346200056357602036600319011262000563578035825260086020526040822060405190620007478262002487565b54916001600160a01b038084169283815260208101938560a01c60020b8552604082019560b81c60020b865215620013ea5781905116925160020b935160020b936040517fddca3f430000000000000000000000000000000000000000000000000000000081526020818581885afa908115620013df57879162001396575b506040519560a0870187811067ffffffffffffffff82111762001383579062ffffff92916040528688526020880193308552604089015260608801521660808601528560405194630dfe168160e01b86526020868681845afa958615620006e65782966200135a575b50602085916040519283809263d21220a760e01b82525afa908115620006e657829162001324575b506040519482868281887f95d89b41000000000000000000000000000000000000000000000000000000009b8c8352165afa95861562001319578396620012f9575b5084959660405196879384928352165afa9283156200070b5793620011316200112b9460749462001252989462001192988b620012be9c94620012c2575b50505160408681015160608089015192519390941690931b6bffffffffffffffffffffffff19166020830190815260e893841b6034840152921b60378201526200112b91603e9161016891906200093c81603a81015b03601f19810183528262002543565b519020069262000aac60b76200095d6200095687620032c2565b96620032c2565b956040519687917f3c726563742077696474683d2233303022206865696768743d2234383022206660208401527f696c6c3d2268736c2800000000000000000000000000000000000000000000006040840152620009c681518092602060498701910162002566565b82017f2c3430252c34302529222f3e000000000000000000000000000000000000000060498201527f3c7265637420783d2233302220793d223330222077696474683d22323430222060558201527f6865696768743d22343230222072783d223135222072793d223135222066696c60758201527f6c3d2268736c2800000000000000000000000000000000000000000000000000609582015262000a76825180936020609c8501910162002566565b017f2c313030252c3530252922207374726f6b653d2223303030222f3e0000000000609c82015203609781018752018562002543565b62000ff160e762000ac662ffffff60808b01511662003426565b95604051967f3c7265637420783d2233302220793d223837222077696474683d22323430222060208901527f6865696768743d223432222f3e0000000000000000000000000000000000000060408901527f3c7465787420783d2233392220793d223132302220636c6173733d22746f6b65604d8901527f6e73222066696c6c3d2223666666223e00000000000000000000000000000000606d890152895162000b79818c6020607d8d01910162002566565b8801602f60f81b607d82015285519062000b9b82607e830160208a0162002566565b017f3c2f746578743e3c7265637420783d2233302220793d22313332222077696474607e8201527f683d2232343022206865696768743d223330222f3e0000000000000000000000609e8201527f3c7465787420783d2233392220793d22313230222064793d2233362220636c6160b38201527f73733d22666565222066696c6c3d2223666666223e000000000000000000000060d382015262000c4a82518093602060e88501910162002566565b0162000c8960ef897f3c2f746578743e00000000000000000000000000000000000000000000000000938460e88201520360cf81018b52018962002543565b62000e406101068c62000cb762000cb06060604084015160020b93015160020b92620034ba565b91620034ba565b936040519485927f3c7265637420783d2233302220793d22333432222077696474683d223234302260208501527f206865696768743d223234222f3e000000000000000000000000000000000000908160408601527f3c7465787420783d2233392220793d223336302220636c6173733d227469636b604e8601527f222066696c6c3d2223666666223e4c6f776572207469636b3a20000000000000606e86015262000d6e81518092602060888901910162002566565b8401908360888301527f3c7265637420783d2233302220793d22333732222077696474683d2232343022608f83015260af8201527f3c7465787420783d2233392220793d22333630222064793d2233302220636c6160bd8201527f73733d227469636b222066696c6c3d2223666666223e5570706572207469636b60dd8201527f3a2000000000000000000000000000000000000000000000000000000000000060fd82015262000e2a82518093602060ff8501910162002566565b019060ff8201520360e681018452018262002543565b6040519788927f3c73766720786d6c6e733d27687474703a2f2f7777772e77332e6f72672f323060208501527f30302f737667272076696577426f783d273020302033303020343830273e000060408501527f3c7374796c653e2e746f6b656e73207b20666f6e743a20626f6c642033307078605e8501527f2073616e732d73657269663b207d000000000000000000000000000000000000607e8501527f2e666565207b20666f6e743a206e6f726d616c20323670782073616e732d7365608c8501527f7269663b207d000000000000000000000000000000000000000000000000000060ac8501527f2e7469636b207b20666f6e743a206e6f726d616c20313870782073616e732d7360b28501527f657269663b207d3c2f7374796c653e000000000000000000000000000000000060d285015262000f8c81518092602060e18801910162002566565b830162000fa482518093602060e18501910162002566565b0162000fbb82518093602060e18501910162002566565b017f3c2f7376673e000000000000000000000000000000000000000000000000000060e18201520360c781018752018562002543565b62ffffff6080880151166200102562000cb06200101e606060408c015160020b9b015160020b9362003426565b99620034ba565b906040519889936020620010438187019b8c81519384920162002566565b8501602f60f81b60208201526200106582518093602060218501910162002566565b017f20000000000000000000000000000000000000000000000000000000000000006021820152620010a282518093602060228501910162002566565b017f2c204c6f776572207469636b3a200000000000000000000000000000000000006022820152620010df82518093602060308501910162002566565b017f2c20557070657220746578743a2000000000000000000000000000000000000060308201526200111b825180936020878501910162002566565b0103601e81018752018562002543565b62003157565b906040519586937f7b226e616d65223a22556e697377617020563320506f736974696f6e222c000060208601527f226465736372697074696f6e223a220000000000000000000000000000000000603e860152518092604d86019062002566565b82017f222c000000000000000000000000000000000000000000000000000000000000604d8201527f22696d616765223a22646174613a696d6167652f7376672b786d6c3b62617365604f8201527f36342c0000000000000000000000000000000000000000000000000000000000606f8201526200121c82518093602060728501910162002566565b017f227d000000000000000000000000000000000000000000000000000000000000607282015203605481018452018262002543565b620012a9603d60405180937f646174613a6170706c69636174696f6e2f6a736f6e3b6261736536342c000000602083015262001298815180926020868601910162002566565b810103601d81018452018262002543565b6040519182916020835260208301906200258b565b0390f35b603e92945092620012ef610168926200112b953d8091833e620012e6818362002543565b810190620030b6565b94925092620008d7565b85965062001312903d8086833e620012e6818362002543565b9562000899565b6040513d85823e3d90fd5b6200134b915060203d60201162001352575b62001342818362002543565b81019062002a01565b3862000857565b503d62001336565b859196506200137a602091823d8411620013525762001342818362002543565b9691506200082f565b602489604188634e487b7160e01b835252fd5b90506020813d602011620013d6575b81620013b46020938362002543565b81010312620013d2575162ffffff81168103620013d25738620007c6565b8680fd5b3d9150620013a5565b6040513d89823e3d90fd5b82604051635079ff7560e11b8152fd5b8234620001875780600319360112620001875760206040516001600160a01b037f0000000000000000000000000000000000000000000000000000000000000000168152f35b9050346200056357608036600319011262000563576200145f620025b2565b62001469620025c9565b6044359260643567ffffffffffffffff81116200055f576200148f903690830162002644565b92906200149e86838762002780565b86823b15958615620014ba575b50620014b786620028ee565b80f35b859760209695975060a490604051998a9788968793630a85bd0160e11b9c8d865233908601526001600160a01b038097166024860152604485015260806064850152816084850152848401378181018301859052601f01601f19168101030193165af19182156200131957620014b7926001600160e01b03199185916200154b575b501614388080808681620014ab565b62001571915060203d811162001578575b62001568818362002543565b810190620028cc565b386200153c565b503d6200155c565b82346200018757604036600319011262000187576200159e620025b2565b602435801515809103620016095733835260056020526001600160a01b03604084209216918284526020526040832060ff1981541660ff83161790556040519081527f17307eab39ab6107e8899845ad3d59bd9653f200f220920489ca2b5937696c3160203392a380f35b8280fd5b90503462000563576020366003190112620005635760609160409135815260086020522054604051906001600160a01b03811682528060a01c60020b602083015260b81c60020b6040820152f35b82346200018757806003193601126200018757604051908060019182549283811c928185169485156200176c575b6020958686108114620017595785885287949392918790821562001735575050600114620016d8575b5050620016c29250038362002543565b620012be6040519282849384528301906200258b565b908592508082527fb10e2d527612073b26eecdfd717e6a320cf44b4afac2b0732d9fcbe2b7fa0cf65b8583106200171c575050620016c293508201018580620016b2565b8054838901850152879450869390920191810162001701565b9250935050620016c294915060ff191682840152151560051b8201018580620016b2565b60248360228b634e487b7160e01b835252fd5b93607f169362001689565b9050346200056357602036600319011262000563576001600160a01b036200179e620025b2565b16908115620017bd576020604084848152600383522054604051908152f35b60649060206040519162461bcd60e51b8352820152600c60248201527f5a45524f5f4144445245535300000000000000000000000000000000000000006044820152fd5b82346200018757602036600319011262000187576020620018238335620026c1565b6001600160a01b0360405191168152f35b90503462000563576060366003190112620005635760405190620018588262002487565b80359182815262001868620025f5565b926020928383019485526044356001600160801b0393848216820362001a4357604081019182526001600160a01b039384620018a482620026c1565b169081331415918262001a23575b508162001a0c575b50620019fc5751875260088552604087209060405191620018db8362002487565b549380851692838152878101938660a01c60020b8552604082019660b81c60020b875215620019ec5792604095949287808c9460a4975116935160020b975160020b9b51169151169087519a8b9788967f4f1eb3d8000000000000000000000000000000000000000000000000000000008852339088015260248701526044860152606485015260848401525af18015620019e157849385916200198d575b5060409450818551941684521690820152f35b9350506040833d604011620019d8575b81620019ac6040938362002543565b81010312620005545760409350620019d182620019c98562002982565b940162002982565b386200197a565b3d91506200199d565b6040513d86823e3d90fd5b84604051635079ff7560e11b8152fd5b8260405163ea8e4eb560e01b8152fd5b8952508286526040882054841633141538620018ba565b8a52600588526040808b20338c5289528a205460ff1615915038620018b2565b8780fd5b8234620001875760a0366003190112620001875760408235918281526008602052206040519062001a788262002487565b54906001600160a01b03908183169485825260208201958460a01c60020b8752604083019460b81c60020b85521562001b7f575091620012be949162001b06935116915160020b905160020b906040519262001ad484620024ba565b8352602083015260408201526024356060820152604435608082015260643560a082015260843560c082015262002a22565b909391927f22fb3c4728e7cc5dd64003f4267d8fb1eb2580f5598050868300738a823d70476040518062001b56858989846040919493926001600160801b03606083019616825260208201520152565b0390a2604051938493846040919493926001600160801b03606083019616825260208201520152565b604051635079ff7560e11b8152fd5b905034620005635760209081600319360112620016095780356001600160a01b038062001bbb83620026c1565b1680331415908162001dda575b508062001dc3575b620019fc5781855260088452604085206040519062001bef8262002487565b54828116908183528060a01c60020b8784015260b81c60020b60408301521562001db35760a062001c24838351169262002de1565b60246040518094819363514ea4bf60e01b8352898301525afa80156200070b5786908792889162001d75575b506001600160801b03809216159283159362001d68575b50821562001d5b575b505062001d32578490828252600885528160408120556002855260408220541662001c9d81151562002675565b808252600385526040822094600019958681540190558383526002815284604084209173ffffffffffffffffffffffffffffffffffffffff199283815416905552604083209081541690557fddf252ad1be2c89b69c2b068fc378daa952ba7f163c4a11628f55a4df523b3ef8280a460065490811562001d1f57500160065580f35b836011602492634e487b7160e01b835252fd5b826040517fd89cc676000000000000000000000000000000000000000000000000000000008152fd5b1615159050388062001c70565b8216151592503862001c67565b91505062001d9e915060a03d811162001dab575b62001d95818362002543565b81019062002997565b9093925090503862001c50565b503d62001d89565b83604051635079ff7560e11b8152fd5b508185528284523381604087205416141562001bd0565b865250600584526040808620338752855285205460ff16153862001bc8565b905034620005635762001e0c366200260c565b91929062001e1c83828662002780565b803b1592831562001e34575b85620014b785620028ee565b602092935060a490866040519687948593630a85bd0160e11b9889865233908601526001600160a01b038093166024860152604485015260806064850152826084850152165af19182156200131957620014b7926001600160e01b031991859162001ea6575b50161438808062001e28565b62001ec2915060203d8111620015785762001568818362002543565b3862001e9a565b82346200018757620014b762001edf366200260c565b9162002780565b823462000187578060031936011262000187576020600654604051908152f35b82346200018757604036600319011262000187576040516040810181811067ffffffffffffffff821117620021ec57604052823580825262001f47620025f5565b6020918284019182526001600160a01b03908162001f6582620026c1565b1690813314159182620021cc575b5081620021b5575b50620021a557835185526008835260408520956040519662001f9d8862002487565b549082821692838952858901938360a01c60020b855260408a019360b81c60020b845215620021955762001fd5908951169862002de1565b926040519363514ea4bf60e01b85528285015260a0846024818c5afa9384156200218a57889462002161575b506001600160801b03938480875116911610620021385760409291886064925160020b935160020b9a8688511686519c8d9687957fa34123a7000000000000000000000000000000000000000000000000000000008752860152602485015260448401525af19384156200212d576040968695620020cf575b50519151865191166001600160801b0316815260208101859052604081018490527f1832d0be987b5f3cbc73b42f7ee61f47d509f9a14f8d3770969dfdabef841c3e9080606081010390a28351928352820152f35b7f1832d0be987b5f3cbc73b42f7ee61f47d509f9a14f8d3770969dfdabef841c3e92965062002119919550873d891162002125575b62002110818362002543565b810190620029da565b9095909490916200207a565b503d62002104565b6040513d87823e3d90fd5b506040517f4323a555000000000000000000000000000000000000000000000000000000008152fd5b6200217e91945060a03d811162001dab5762001d95818362002543565b50505050928962002001565b6040513d8a823e3d90fd5b50604051635079ff7560e11b8152fd5b8560405163ea8e4eb560e01b8152fd5b865250858352604085205481163314158762001f7b565b8752600585526040808820338952865287205460ff161591508862001f73565b602483604186634e487b7160e01b835252fd5b9050346200056357604036600319011262000563576200221e620025b2565b6024359182845260026020526001600160a01b0380604086205416918233148015620022a1575b6200225090620026e8565b848652602052604085209216918273ffffffffffffffffffffffffffffffffffffffff198254161790557f8c5be1e5ebec7d5bd14f71427d1e84f3dd0314c0f7b2291e5b200ac8c7c3b9258480a480f35b508286526005602052604086203387526020526200225060ff604088205416905062002245565b9050346200056357602036600319011262000563576040602092826001600160a01b03933582528452205416604051908152f35b823462000187578060031936011262000187576040519080805491600183811c92818516948515620023be575b602095868610811462001759578588528794939291879082156200173557505060011462002361575050620016c29250038362002543565b908592508180527f290decd9548b62a8d60345a988386fc84ba6bc95484008f6362f93160ef3e5635b858310620023a5575050620016c293508201018580620016b2565b805483890185015287945086939092019181016200238a565b93607f169362002329565b915034620016095760203660031901126200160957356001600160e01b031981168091036200160957602092507f01ffc9a70000000000000000000000000000000000000000000000000000000081149081156200245c575b811562002431575b5015158152f35b7f5b5e139f00000000000000000000000000000000000000000000000000000000915014386200242a565b7f80ac58cd000000000000000000000000000000000000000000000000000000008114915062002422565b6060810190811067ffffffffffffffff821117620024a457604052565b634e487b7160e01b600052604160045260246000fd5b60e0810190811067ffffffffffffffff821117620024a457604052565b67ffffffffffffffff8111620024a457604052565b6080810190811067ffffffffffffffff821117620024a457604052565b6020810190811067ffffffffffffffff821117620024a457604052565b6040810190811067ffffffffffffffff821117620024a457604052565b90601f8019910116810190811067ffffffffffffffff821117620024a457604052565b60005b8381106200257a5750506000910152565b818101518382015260200162002569565b90602091620025a68151809281855285808601910162002566565b601f01601f1916010190565b600435906001600160a01b03821682036200054f57565b602435906001600160a01b03821682036200054f57565b35906001600160a01b03821682036200054f57565b602435906001600160801b03821682036200054f57565b60609060031901126200054f576001600160a01b039060043582811681036200054f579160243590811681036200054f579060443590565b9181601f840112156200054f5782359167ffffffffffffffff83116200054f57602083818601950101116200054f57565b156200267d57565b606460405162461bcd60e51b815260206004820152600a60248201527f4e4f545f4d494e544544000000000000000000000000000000000000000000006044820152fd5b60005260026020526001600160a01b036040600020541690620026e682151562002675565b565b15620026f057565b606460405162461bcd60e51b815260206004820152600e60248201527f4e4f545f415554484f52495a45440000000000000000000000000000000000006044820152fd5b156200273c57565b606460405162461bcd60e51b815260206004820152601160248201527f494e56414c49445f524543495049454e540000000000000000000000000000006044820152fd5b60008381526020600281526001600160a01b0393604090858083862054169516948503620028895790620027fc867fddf252ad1be2c89b69c2b068fc378daa952ba7f163c4a11628f55a4df523b3ef9594931696620027e188151562002734565b8633149081156200286b575b811562002854575b50620026e8565b848352600382528083206000198154019055858352808320600181540190558683526002825260048184209273ffffffffffffffffffffffffffffffffffffffff1993888582541617905552822090815416905580a4565b9050888552600484528285205416331438620027f5565b8786526005855283862033875285528386205460ff169150620027ed565b60648383519062461bcd60e51b82526004820152600a60248201527f57524f4e475f46524f4d000000000000000000000000000000000000000000006044820152fd5b908160209103126200054f57516001600160e01b0319811681036200054f5790565b15620028f657565b606460405162461bcd60e51b815260206004820152601060248201527f554e534146455f524543495049454e54000000000000000000000000000000006044820152fd5b6084358060020b81036200054f5790565b60a4358060020b81036200054f5790565b60001981146200296c5760010190565b634e487b7160e01b600052601160045260246000fd5b51906001600160801b03821682036200054f57565b908160a09103126200054f57620029ae8162002982565b91602082015191604081015191620029d76080620029cf6060850162002982565b930162002982565b90565b91908260409103126200054f576020825192015190565b519061ffff821682036200054f57565b908160209103126200054f57516001600160a01b03811681036200054f5790565b906001600160a01b039182815116916040805180947f3850c7bd00000000000000000000000000000000000000000000000000000000825281600460a09788935afa90811562002dd65760009162002d5d575b506020958685019062002a8c825160020b620035be565b928487019362002aa0855160020b620035be565b606089015160808a015190929082828782168882161162002d51575b505084861694828716861162002cf357505062002ada935062002e4a565b925b839882885116935160020b915160020b928651630dfe168160e01b81528281600481895afa90811562002ce85760009162002cc6575b50600483838c51168a519283809263d21220a760e01b82525afa90811562002cbb5793838a9997959360009562002bef946001600160801b039d9b9996889162002c99575b508b8281519462002b688662002487565b1693848152838782019316835201923384528c519586015251168a840152511660608201526060815262002b9c81620024ec565b8751998a97889687957f3c8a7d8d000000000000000000000000000000000000000000000000000000008752306004880152602487015260448601521660648401528c608484015260a48301906200258b565b03925af190811562002c8f57600092839262002c68575b5081948396810151841090811562002c59575b5062002c2457505050565b6044935051917fa8f6c8d000000000000000000000000000000000000000000000000000000000835260048301526024820152fd5b60c09150015182103862002c19565b9080935062002c8692503d8411620021255762002110818362002543565b90913862002c06565b513d6000823e3d90fd5b62002cb49150853d8711620013525762001342818362002543565b3862002b57565b89513d6000823e3d90fd5b62002ce19150833d8511620013525762001342818362002543565b3862002b12565b88513d6000823e3d90fd5b919490939192908682161062002d4357829162002d169162002d1d959462002e4a565b936200305c565b6001600160801b03818116908316101562002d3b57505b9262002adc565b905062002d34565b91505062002d34926200305c565b93509150388062002abc565b8581813d831162002dce575b62002d75818362002543565b8101031262000563578051918783168303620001875760208201518060020b0362000187575060808162002daf8562002dc69401620029f1565b5062002dbe60608201620029f1565b5001620029f1565b503862002a75565b503d62002d69565b82513d6000823e3d90fd5b60208181015160409283015192513060601b6bffffffffffffffffffffffff191692810192835260e891821b603482015292901b60378301529062002e2a81603a81016200092d565b51902090565b6001600160a01b0391821690821603919082116200296c57565b9162002e93916001600160801b03936001600160a01b03908183168282161162002e97575b62002e8b9062002e8483851684831662002ebf565b9362002e30565b169162002fe2565b1690565b9162002e6f565b811562002ea9570490565b634e487b7160e01b600052601260045260246000fd5b600019828209908281029283808410930392808403931462002f42576c01000000000000000000000000918284101562002f06570990828211900360a01b910360601c1790565b82606492604051927f63a05778000000000000000000000000000000000000000000000000000000008452600484015260248301526044820152fd5b50505060601c90565b6c0100000000000000000000000091600019838309928260601b9283808610950394808603951462002fd3578285101562002f0657908291096001821901821680920460028082600302188083028203028083028203028083028203028083028203028083028203028092029003029360018380600003040190848311900302920304170290565b505090620029d7925062002e9e565b9091600019838309928083029283808610950394808603951462002fd3578285101562002f0657908291096001821901821680920460028082600302188083028203028083028203028083028203028083028203028083028203028092029003029360018380600003040190848311900302920304170290565b9162002e93916200308a6001600160801b03946001600160a01b039283811684831611620030925762002e30565b169062002f4b565b9062002e30565b67ffffffffffffffff8111620024a457601f01601f191660200190565b6020818303126200054f5780519067ffffffffffffffff82116200054f570181601f820112156200054f578051620030ee8162003099565b92620030fe604051948562002543565b818452602082840101116200054f57620029d7916020808501910162002566565b906200312b8262003099565b6200313a604051918262002543565b82815280926200314d601f199162003099565b0190602036910137565b805115620032ac576040516200316d8162002487565b604081527f4142434445464748494a4b4c4d4e4f505152535455565758595a61626364656660208201527f6768696a6b6c6d6e6f707172737475767778797a303132333435363738392b2f604082015281516002928382018092116200296c5760038092047f3fffffffffffffffffffffffffffffffffffffffffffffffffffffffffffffff811681036200296c576200320b908594951b6200311f565b936020850193829183518401925b8381106200325a575050505051068060011462003247576002146200323c575090565b603d90600019015390565b50603d9081600019820153600119015390565b85600491979293949701918251600190603f9082828260121c16880101518453828282600c1c16880101518385015382828260061c168801015188850153168501015187820153019592919062003219565b50604051620032bb8162002509565b6000815290565b806000917a184f03e93ff9f4daa797ed6e38ed64bf6a1f0100000000000000008082101562003417575b506d04ee2d6d415b85acef81000000008083101562003407575b50662386f26fc1000080831015620033f7575b506305f5e10080831015620033e7575b5061271080831015620033d7575b506064821015620033c6575b600a80921015620033bb575b600190816021620033628287016200311f565b95860101905b62003375575b5050505090565b600019019083907f30313233343536373839616263646566000000000000000000000000000000008282061a835304918215620033b55791908262003368565b6200336e565b91600101916200334f565b919060646002910491019162003343565b6004919392049101913862003337565b6008919392049101913862003329565b6010919392049101913862003319565b6020919392049101913862003306565b604093508104915038620032ec565b606091906101f481036200347257509050604051620034458162002526565b600581527f302e303525000000000000000000000000000000000000000000000000000000602082015290565b610bb8146200347d57565b90506040516200348d8162002526565b600481527f302e332500000000000000000000000000000000000000000000000000000000602082015290565b8060020b60008082129283600014620035a657604051620034db8162002526565b600181527f2d000000000000000000000000000000000000000000000000000000000000006020820152935b15620035855750627fffff19821462003571576200353262ffffff620029d7936020930316620032c2565b925b60405193816200354e869351809286808701910162002566565b8201620035648251809386808501910162002566565b0103808452018262002543565b80634e487b7160e01b602492526011600452fd5b620029d792506020915062ffffff6200359f9116620032c2565b9262003534565b604051620035b48162002509565b8281529362003507565b60020b600081121562003b77577f800000000000000000000000000000000000000000000000000000000000000081146200296c57806000035b620d89e8811162003b3357600181161562003b095770ffffffffffffffffffffffffffffffffff6ffffcb933bd6fad37aa2d162d1a5940015b16916002821662003adb575b60049182811662003aad575b6008811662003a7f575b6010811662003a51575b6020811662003a23575b60408116620039f5575b608090818116620039c8575b61010081166200399b575b61020081166200396e575b610400811662003941575b610800811662003914575b6110008116620038e7575b6120008116620038ba575b61400081166200388d575b618000811662003860575b62010000811662003833575b62020000811662003807575b620400008116620037c7575b620800001662003786575b506000126200375e575b63ffffffff8260201c921615600014620037545760ff60005b1682018092116200373f57506001600160a01b031690565b601190634e487b7160e01b6000525260246000fd5b60ff600162003727565b908015620037715760001904906200370e565b601282634e487b7160e01b6000525260246000fd5b6b048a170391f7dc42444e8fa293919391828102928184041490151715620037b2571c91600062003704565b601183634e487b7160e01b6000525260246000fd5b936d2216e584f5fa1ea926041bedfe9890818102918183041490151715620037f257811c93620036f9565b601184634e487b7160e01b6000525260246000fd5b936e5d6af8dedb81196699c329225ee60490818102918183041490151715620037f257811c93620036ed565b936f09aa508b5b7a84e1c677de54f3e99bc990818102918183041490151715620037f257811c93620036e1565b936f31be135f97d08fd981231505542fcfa690818102918183041490151715620037f257811c93620036d5565b936f70d869a156d2a1b890bb3df62baf32f790818102918183041490151715620037f257811c93620036ca565b936fa9f746462d870fdf8a65dc1f90e061e590818102918183041490151715620037f257811c93620036bf565b936fd097f3bdfd2022b8845ad8f792aa582590818102918183041490151715620037f257811c93620036b4565b936fe7159475a2c29b7443b29c7fa6e889d990818102918183041490151715620037f257811c93620036a9565b936ff3392b0822b70005940c7a398e4b70f390818102918183041490151715620037f257811c936200369e565b936ff987a7253ac413176f2b074cf7815e5490818102918183041490151715620037f257811c9362003693565b936ffcbe86c7900a88aedcffc83b479aa3a490818102918183041490151715620037f257811c9362003688565b936ffe5dee046a99a2a811c461f1969c305390818102918183041490151715620037f257811c936200367d565b926fff2ea16466c96a3843ec78b326b5286190818102918183041490151715620037b25760801c9262003671565b926fff973b41fa98c081472e6896dfb254c090818102918183041490151715620037b25760801c9262003667565b926fffcb9843d60f6159c9db58835c92664490818102918183041490151715620037b25760801c926200365d565b926fffe5caca7e10e4e61c3624eaa0941cd090818102918183041490151715620037b25760801c9262003653565b926ffff2e50f5f656932ef12357cf3c7fdcc90818102918183041490151715620037b25760801c9262003649565b916ffff97272373d413259a46990580e213a908181029181830414901517156200296c5760801c916200363d565b70ffffffffffffffffffffffffffffffffff70010000000000000000000000000000000062003631565b606460405162461bcd60e51b815260206004820152600160248201527f54000000000000000000000000000000000000000000000000000000000000006044820152fd5b80620035f856fe61012080604052346200019857630890357360e41b815260a090600090828160048185335af19182156200018c578091818091818096620000dc575b505061010094855260e05260c052835260805260405190612b5b9283620001c484396080518361130b015251828181610db5015281816118ff01528181611a4c01528181611f600152612354015260c051828181610ddd015281816112870152818161183d01528181611a7301526123e7015260e051828181610e71015281816112c7015261219d015251818181610ca001528181610e490152611aaa0152f35b94509450505050823d841162000184575b601f8101601f191683016001600160401b03811184821017620001705784918491604052810103126200016d575062000126816200019d565b9062000135602082016200019d565b9062000144604082016200019d565b906200016160806200015960608401620001b2565b9201620001b2565b9392919038806200003b565b80fd5b634e487b7160e01b83526041600452602483fd5b503d620000ed565b604051903d90823e3d90fd5b600080fd5b51906001600160a01b03821682036200019857565b519062ffffff82168203620001985756fe608080604052600436101561001357600080fd5b600090813560e01c9081630dfe168114611f41575080631a68650214611f1a578063252c09d714611ecc57806332148f6714611e205780633850c7bd14611dca5780633c8a7d8d14611b665780634614131914611b485780634a182392146119ba5780634f1eb3d8146116c2578063514ea4bf146116605780635339c2961461162a578063883bdbfd146114a4578063a34123a71461132f578063c45a0155146112eb578063d0c93a7c146112ab578063d21220a714611267578063dd5a12d814610cc4578063ddca3f4314610c84578063f305839914610c67578063f30dba9314610bf85763f637731d1461010857600080fd5b34610bf557602080600319360112610bf157610122611f84565b9060029182546001600160a01b0392838216610bc757838316926401000276a384101580610baa575b15610b665777ffffffffffffffffffffffffffffffffffffffff0000000090821b1680916001600160801b03821160071b9582871c9367ffffffffffffffff851160061b94851c9763ffffffff9889811160051b90811c61ffff811160041b90811c60ff811160031b90811c918d600f8411901b92831c9360019a8b60038711811b96871c1196171717171717179060809485831015600014610b525750607e1982018281116106c3571c5b607f1982019182138616610b2857800280607f1c8160ff1c1c800280607f1c8160ff1c1c800280607f1c8160ff1c1c800280607f1c8160ff1c1c800280607f1c8160ff1c1c800280607f1c8160ff1c1c80029081607f1c8260ff1c1c80029283607f1c8460ff1c1c80029485607f1c8660ff1c1c80029687607f1c8860ff1c1c80029889607f1c8a60ff1c1c80029a8b607f1c8c60ff1c1c80029c8d80607f1c9060ff1c1c800260cd1c6604000000000000169d60cc1c6608000000000000169c60cb1c6610000000000000169b60ca1c6620000000000000169a60c91c6640000000000000169960c81c6680000000000000169860c71c670100000000000000169760c61c670200000000000000169660c51c670400000000000000169560c41c670800000000000000169460c31c671000000000000000169360c21c672000000000000000169260c11c674000000000000000169160c01c678000000000000000169060401b171717171717171717171717171790693627a301d71055774c8591828102928184051490151715610b3e577ffffffffffffffffffffffffffffffffffd709b7e5480fba5a50fed5e62ffc55682018281138616610b2857841d890b916fdb2df09e81959a81455e260799a0632f908b8282019283129112908015821691151617610b14578a929190851d8a0b908183036104c957505094600160d81b979462ffffff60a01b9461ffff60d81b1998946b0100000000000000000000007fffffffffff00000000000000000000000000000000000000000000000000000095600160c81b9a995b421685604080516104558161203e565b838152848782015201526affffffffffffff0000000060075492851b16916bffffffffffffffffffffffff19161717176007556040519061049582612022565b868252888d0b908201528c6040820152826060820152015216179160a01b161761ffff60b81b8660b81b1617171617905580f35b9092508a831215610b0e576104dd83612297565b620d89e88111610acb578b9392919087811615610aa25770ffffffffffffffffffffffffffffffffff6ffffcb933bd6fad37aa2d162d1a5940015b16908c8116610a6d575b60048116610a38575b60088116610a03575b601081166109ce575b868116610999575b60408116610964575b87811661092f575b61010081166108fa575b61020081166108c5575b6104008116610890575b610800811661085b575b6110008116610826575b61200081166107f1575b61400081166107bc575b6180008116610787575b620100008116610752575b62020000811661071e575b6204000081166106d7575b6208000016610694575b848413610667575b946b01000000000000000000000085600160c81b9a958d9a958d600160d81b9f9661ffff60d81b199f9b61064a9062ffffff60a01b9e997fffffffffff0000000000000000000000000000000000000000000000000000009d5081161560001461065f5760ff875b1690891c61209d565b161161065857505b99610445565b9050610652565b60ff8b610641565b80919293945015610680578b93929190600019046105d9565b60248c634e487b7160e01b81526012600452fd5b90919293506b048a170391f7dc42444e8fa2908181029181830414901517156106c357908b939291861c6105d1565b60248c634e487b7160e01b81526011600452fd5b91929394506d2216e584f5fa1ea926041bedfe989081810291818304149015171561070a578c9493929190871c906105c7565b60248d634e487b7160e01b81526011600452fd5b91929394506e5d6af8dedb81196699c329225ee6049081810291818304149015171561070a57908c94939291871c906105bc565b91929394506f09aa508b5b7a84e1c677de54f3e99bc99081810291818304149015171561070a57908c94939291871c906105b1565b91929394506f31be135f97d08fd981231505542fcfa69081810291818304149015171561070a57908c94939291871c906105a6565b91929394506f70d869a156d2a1b890bb3df62baf32f79081810291818304149015171561070a57908c94939291871c9061059c565b91929394506fa9f746462d870fdf8a65dc1f90e061e59081810291818304149015171561070a57908c94939291871c90610592565b91929394506fd097f3bdfd2022b8845ad8f792aa58259081810291818304149015171561070a57908c94939291871c90610588565b91929394506fe7159475a2c29b7443b29c7fa6e889d99081810291818304149015171561070a57908c94939291871c9061057e565b91929394506ff3392b0822b70005940c7a398e4b70f39081810291818304149015171561070a57908c94939291871c90610574565b91929394506ff987a7253ac413176f2b074cf7815e549081810291818304149015171561070a57908c94939291871c9061056a565b91929394506ffcbe86c7900a88aedcffc83b479aa3a49081810291818304149015171561070a57908c94939291871c90610560565b91929394506ffe5dee046a99a2a811c461f1969c30539081810291818304149015171561070a57908c94939291871c90610556565b91929394506fff2ea16466c96a3843ec78b326b528619081810291818304149015171561070a57908c94939291871c9061054e565b91929394506fff973b41fa98c081472e6896dfb254c09081810291818304149015171561070a57908c94939291871c90610545565b91929394506fffcb9843d60f6159c9db58835c9266449081810291818304149015171561070a57908c94939291871c9061053d565b91929394506fffe5caca7e10e4e61c3624eaa0941cd09081810291818304149015171561070a57908c94939291871c90610534565b91929394506ffff2e50f5f656932ef12357cf3c7fdcc9081810291818304149015171561070a57908c94939291871c9061052b565b91929394506ffff97272373d413259a46990580e213a9081810291818304149015171561070a57908c94939291871c90610522565b70ffffffffffffffffffffffffffffffffff700100000000000000000000000000000000610518565b606485886040519162461bcd60e51b8352600483015260248201527f54000000000000000000000000000000000000000000000000000000000000006044820152fd5b826104dd565b60248b634e487b7160e01b81526011600452fd5b634e487b7160e01b600052601160045260246000fd5b60248a634e487b7160e01b81526011600452fd5b905081607f03607f81116106c3571b6101f7565b6064826040519062461bcd60e51b82526004820152600160248201527f52000000000000000000000000000000000000000000000000000000000000006044820152fd5b5073fffd8963efd1fc6a506488495d951d5263988d26841061014b565b60046040517f0dc149f0000000000000000000000000000000000000000000000000000000008152fd5b5080fd5b80fd5b5034610bf5576020366003190112610bf557604060a091610c17611fba565b60020b81526004602052208054906001810154600f0b9060036002820154910154916001600160801b036040519460ff81161515865260081c166020850152604084015260608301526080820152f35b5034610bf55780600319360112610bf55760209054604051908152f35b5034610bf55780600319360112610bf557602060405162ffffff7f0000000000000000000000000000000000000000000000000000000000000000168152f35b5034610bf55760a0366003190112610bf557610cde611f84565b90602435151560243503610bf5576064356001600160a01b03811681036112625760843567ffffffffffffffff81116110e457610d1f903690600401611fe0565b929060405191610d2e83612022565b6002546001600160a01b03811684528060a01c60020b602085015261ffff8160b81c16604085015261ffff8160c81c16606085015261ffff8160d81c1660808501526001600160801b0360035416825490600154926001600160a01b03604051987f27954896000000000000000000000000000000000000000000000000000000008a52817f00000000000000000000000000000000000000000000000000000000000000001660048b0152817f00000000000000000000000000000000000000000000000000000000000000001660248b0152818c1660448b0152602435151560648b015260443560848b01521660a48901526001600160a01b03811660c489015260a01c60020b60e488015261010487015262ffffff807f0000000000000000000000000000000000000000000000000000000000000000166101248801527f000000000000000000000000000000000000000000000000000000000000000016610144870152600561016487015260046101848701526101a48601526101c485015260e0846101e48173__$d17d1fe473380c67ec84e69d3dc368d5c4$__5af4948515611255578195829583848597869387956111c8575b50602081015160020b90818360020b141560001461118e5792610f3c62ffffff60a01b928561ffff604061ffff60b81b980151169161ffff608081606085015116930151169263ffffffff42169061248b565b9490917fffffffffff0000000000000000000000000000000000000000000000000000007affff000000000000000000000000000000000000000000000000006001600160a01b0360025493169760c81b169116179160b81b16179160a01b1617176002555b6001600160801b03600354961686816001600160801b0381991603611170575b50508355600155602435156110e857610fd961232f565b92333b156110e457611004918391604051938492839263fa461e3360e01b84528a8c600486016122f8565b038183335af180156110d957908692916110c1575b50506110249161209d565b61102c61232f565b10611097576001600160a01b036040945b60025486519386855285602086015283821688860152606085015260a01c60020b608084015216907fc42079f94a6350d7e6235f29174924f928cc2ac818eb64fed8004e115fbcca6760a03392a382519182526020820152f35b60046040517f098fb561000000000000000000000000000000000000000000000000000000008152fd5b8192506110cd9061200e565b610bf557808591611019565b6040513d84823e3d90fd5b8280fd5b6110f06123c2565b92333b156110e45761111b918391604051938492839263fa461e3360e01b84528a8c600486016122f8565b038183335af180156110d95790859291611158575b505061113b9161209d565b6111436123c2565b10611097576001600160a01b0360409461103d565b8192506111649061200e565b610bf557808491611130565b6fffffffffffffffffffffffffffffffff1916176003558538610fc2565b5050506001600160a01b03167fffffffffffffffffffffffff00000000000000000000000000000000000000006002541617600255610fa2565b9850995050505050935060e0833d60e01161124d575b816111eb60e0938361205a565b81010312610bf5578251936020840151956040850151956001600160a01b03871687036112495760608601518060020b81036112455761122d608088016120aa565b60c060a0890151980151929998919097929338610ee9565b8480fd5b8380fd5b3d91506111de565b50604051903d90823e3d90fd5b600080fd5b5034610bf55780600319360112610bf55760206040516001600160a01b037f0000000000000000000000000000000000000000000000000000000000000000168152f35b5034610bf55780600319360112610bf557602060405162ffffff7f0000000000000000000000000000000000000000000000000000000000000000168152f35b5034610bf55780600319360112610bf55760206040516001600160a01b037f0000000000000000000000000000000000000000000000000000000000000000168152f35b5034610bf5576060366003190112610bf557611349611fba565b611351611f9a565b604435906001600160801b038083168093036112625782600f0b7fffffffffffffffffffffffffffffffff80000000000000000000000000000000811461149057916113b593916113ac6113bb9694604098038386336120be565b97919690612297565b96612297565b948615801590611487575b611417575b50508551918252846020830152838683015260020b9160020b907f0c396cd989a39f4459b5fa1aed6a9a8dcdbc45908acfd67e028cd568da98982c60603392a482519182526020820152f35b60030190815461146761143e611431848b168585166122c4565b92848a169060801c6122c4565b84546001600160801b031660809190911b6fffffffffffffffffffffffffffffffff1916178455565b166fffffffffffffffffffffffffffffffff1982541617905538806113cb565b508515156113c6565b602486634e487b7160e01b81526011600452fd5b5034610bf557602080600319360112610bf1576004359167ffffffffffffffff808411610bf15736602385011215610bf1578360040135908111610bf157602493848260051b8201013681116112495763ffffffff90814216600254928360a01c60020b9261ffff808660b81c169560c81c169561152188612317565b9761152f604051998a61205a565b88528a018988015b82821061160e5750505085519561156661155088612317565b9761155e604051998a61205a565b808952612317565b878a0190601f1901368237885b82518110156115c9576115958888888761158d86896126f3565b511689612707565b61159f828b6126f3565b9060060b905260001981146115b657600101611573565b8b8a634e487b7160e01b81526011600452fd5b888b838c60405193838594850191818652518092526040850193925b8281106115f457505050500390f35b835160060b855286955093810193928101926001016115e5565b81358481168103611626578152908a01908a01611537565b8a80fd5b5034610bf5576020366003190112610bf5576004358060010b809103610bf1578160409160209352600583522054604051908152f35b5034610bf5576020366003190112610bf557604060a09160043581526006602052206001600160801b039081815416916001820154916003600282015491015492604051948552602085015260408401528116606083015260801c6080820152f35b5034610bf55760a0366003190112610bf5576116dc611f84565b6116e4611f9a565b916116ed611faa565b926116f6611fca565b92608435946001600160801b0393848716948588036112625760405160208101903360601b82528660e81b60348201528460e81b6037820152601a81526040810181811067ffffffffffffffff8211176119a45760405251902082526006602052600360408320019788549682881698898482161160001461199e575088915b8860801c8092116000146119965750965b82821698838a6118d3575b50505050851694856117f8575b5050604095506001600160a01b03865192168252846020830152838683015260020b9160020b907fa89c1c8a741251492622c95237828c75d1dbb03ea956f09e3792ff2a14f4fe6260603392a482519182526020820152f35b6118338861180b83859b5460801c6122df565b6001600160801b036fffffffffffffffffffffffffffffffff1983549260801b169116179055565b6001600160a01b037f00000000000000000000000000000000000000000000000000000000000000001690813b156110e45760405163a9059cbb60e01b81526001600160a01b03861660048201526001600160801b0391909116602482015291908290604490829084905af180156118c8576118b0575b8061179f565b6118ba879161200e565b6118c457856118aa565b8580fd5b6040513d89823e3d90fd5b6118ef846fffffffffffffffffffffffffffffffff19936122df565b1691161789556001600160a01b037f00000000000000000000000000000000000000000000000000000000000000001690813b156112495760405163a9059cbb60e01b81526001600160a01b03871660048201526001600160801b039190911660248201529083908290604490829084905af1801561198b57908391611977575b8083611792565b6119809061200e565b610bf1578138611970565b6040513d85823e3d90fd5b905096611787565b91611776565b634e487b7160e01b600052604160045260246000fd5b5034610bf5576060366003190112610bf5576004356024358260443567ffffffffffffffff8111610bf1576119f3903690600401611fe0565b919073__$f9857a4711eec40b8ae03426d7155b8866$__803b156110e457611ae6936040518095819482937f8d0d22a00000000000000000000000000000000000000000000000000000000084526001600160a01b03807f00000000000000000000000000000000000000000000000000000000000000001660048601527f00000000000000000000000000000000000000000000000000000000000000001660248501528a604485015289606485015262ffffff7f00000000000000000000000000000000000000000000000000000000000000001660848501523360a485015260e060c485015260e484019161207c565b03915af48015611b3d57611b2a575b5060405191825260208201527f1c1db1f1d6a01e51fec24bb54087b65fe5430f692280e70d92f718eb72ae76b760403392a280f35b611b369093919361200e565b9138611af5565b6040513d86823e3d90fd5b5034610bf55780600319360112610bf5576020600154604051908152f35b5034610bf55760a0366003190112610bf557611b80611f84565b90611b89611f9a565b611b91611faa565b611b99611fca565b60843567ffffffffffffffff811161124557611bb9903690600401611fe0565b93908360020b938260020b93858512801590611dbd575b8015611db1575b611d87576001600160801b0316928315611d5d57611bfa9184600f0b918a6120be565b969150968081928915159283611d4d575b8915159586611d3d575b333b15610bf1578a8c611c69849360405196879485947fd34879970000000000000000000000000000000000000000000000000000000086526004860152602485015260606044850152606484019161207c565b038183335af1908115611d315750908a9291611d22575b5082611d08575b505061109757859082611cee575b5050611097577f7a53080ba414158be7ec69b987b5fb7d07dee101fe85488f0853ae16239d0bde60806001600160a01b036040988951943386526020860152888a8601528760608601521692a482519182526020820152f35b611cf8925061209d565b611d006123c2565b108438611c95565b611d12925061209d565b611d1a61232f565b108738611c87565b611d2b9061200e565b38611c80565b604051903d90823e3d90fd5b9450611d476123c2565b94611c15565b9150611d5761232f565b91611c0b565b60046040517f10074548000000000000000000000000000000000000000000000000000000008152fd5b60046040517f064847d0000000000000000000000000000000000000000000000000000000008152fd5b50620d89e88613611bd7565b50620d89e7198512611bd0565b5034610bf55780600319360112610bf55760a0600254604051906001600160a01b038116825280831c60020b602083015261ffff90818160b81c166040840152818160c81c16606084015260d81c166080820152f35b5034610bf5576020366003190112610bf55760043561ffff80821682036110e457611e538160025460d81c16928361259d565b90811691808303611e62578380f35b7fac49e518f90a358f652e4400164f05a5d8f7e35e7747279bc3a93dbf584e125a9260409261ffff60d81b197cffff0000000000000000000000000000000000000000000000000000006002549260d81b1691161760025582519182526020820152a13880808380f35b5034610bf5576020366003190112610bf55760043561ffff811015610bf1576060906007015460ff6040519163ffffffff811683528060201c60060b602084015260581c1615156040820152f35b5034610bf55780600319360112610bf55760206001600160801b0360035416604051908152f35b905034610bf15781600319360112610bf1576020906001600160a01b037f0000000000000000000000000000000000000000000000000000000000000000168152f35b600435906001600160a01b038216820361126257565b602435908160020b820361126257565b604435908160020b820361126257565b600435908160020b820361126257565b606435906001600160801b038216820361126257565b9181601f840112156112625782359167ffffffffffffffff8311611262576020838186019501011161126257565b67ffffffffffffffff81116119a457604052565b60a0810190811067ffffffffffffffff8211176119a457604052565b6060810190811067ffffffffffffffff8211176119a457604052565b90601f8019910116810190811067ffffffffffffffff8211176119a457604052565b908060209392818452848401376000828201840152601f01601f1916010190565b91908201809211610b2857565b51906001600160801b038216820361126257565b9390916040938451608081019181831067ffffffffffffffff8411176119a4577f4d8b54ac0000000000000000000000000000000000000000000000000000000095879384526001600160a01b0380991683526020830191600291820b835284840195820b86526060840190600f0b8152898254916001600160801b039788600354169560009d8e54986001549a519d8e52511660048d015251850b60248c015251840b60448b015251600f0b60648a0152600660848a0152600460a48a0152600560c48a0152811660e489015260a01c900b61010487015262ffffff7f0000000000000000000000000000000000000000000000000000000000000000166101248701526101448601526101648501526101848401526080836101a48173__$ee58cc6b4b385dce4aa659b5a6a51152a5$__5af494851561228c5780948194828098612238575b505050929394816003549116918116820361221f575050565b6fffffffffffffffffffffffffffffffff191617600355565b93975094509450506080833d8211612284575b816122586080938361205a565b81010312610bf55750815193612279606060208501519585015194016120aa565b949392388080612206565b3d915061224b565b8451903d90823e3d90fd5b7f80000000000000000000000000000000000000000000000000000000000000008114610b285760000390565b9190916001600160801b0380809416911601918211610b2857565b6001600160801b039182169082160391908211610b2857565b612314949260609282526020820152816040820152019161207c565b90565b67ffffffffffffffff81116119a45760051b60200190565b6040516370a0823160e01b815230600482015260208160248160006001600160a01b037f0000000000000000000000000000000000000000000000000000000000000000165af19081156123b657600091612388575090565b906020823d82116123ae575b816123a16020938361205a565b81010312610bf557505190565b3d9150612394565b6040513d6000823e3d90fd5b6040516370a0823160e01b815230600482015260208160248160006001600160a01b037f0000000000000000000000000000000000000000000000000000000000000000165af19081156123b657600091612388575090565b906040516124288161203e565b604060ff82945463ffffffff811684528060201c60060b602085015260581c161515910152565b90600161ffff80931601918211610b2857565b9061ffff80911691821561247557160690565b634e487b7160e01b600052601260045260246000fd5b94929161ffff918287101561254b576124a68760070161241b565b9663ffffffff9485895116868416146125925784811680868a1611908161256b575b50916124e8986124ed926124f3969594600014612561575098899161244f565b612462565b9761268d565b9085101561254b5784600701918151168254906affffffffffffff000000006bff00000000000000000000006040602086015160201b950151151560581b169316916bffffffffffffffffffffffff19161717179055565b634e487b7160e01b600052603260045260246000fd5b905098899161244f565b905060009493929194190190858211610b28579293919291908516858316146124e86124c8565b909750955050505050565b61ffff9081831690828116821115612614575b81838216106125bf5750505090565b828110156125ff5760078101805463ffffffff1916600117905582168083146125ea576001016125b0565b60246000634e487b7160e01b81526011600452fd5b60246000634e487b7160e01b81526032600452fd5b9250505090565b604051906126288261203e565b60006040838281528260208201520152565b63ffffffff9182169082160391908211610b2857565b9060060b9060060b02908160060b918203610b2857565b9060060b9060060b0190667fffffffffffff198212667fffffffffffff831317610b2857565b6126d09092919261269c61261b565b506126c763ffffffff936020856126b6818651168961263a565b169301519260060b9060020b612650565b9060060b612667565b90604051926126de8461203e565b16825260060b60208201526001604082015290565b805182101561254b5760209160051b010190565b939192909263ffffffff93848116156127f3579061272a6127319493928761263a565b8096612837565b909180835116818516818114600014612754575050505060209150015160060b90565b828495945116809114600014612774575050505060209150015160060b90565b91612794816127886020979594889561263a565b1696828651169061263a565b1692015160060b928391015160060b0392667fffffffffffff1990667fffffffffffff851382861217610b285760060b9360060b908415612475578114600019851416610b2857612314936127ed9260060b9105612650565b90612667565b5091509261ffff84101561254b5761280f60209460070161241b565b928084511690821603612827575b5050015160060b90565b6128309261268d565b388061281d565b90919461284261261b565b5061284b61261b565b9361ffff968782101561254b5760079561286683880161241b565b63ffffffff9261287a888584511689612aac565b612a665750505061288e876124e88461244f565b8881101561254b576128a190870161241b565b9160409286838583015115612a30575b6128bd92511687612aac565b156129ed57886128e3896124e883946128d461261b565b506128dd61261b565b5061244f565b169716956128f1878961209d565b60001998818a01918211610b28575b61290a828261209d565b91600192831c9261291b8b85612b1b565b8d81101561254b5761292e90860161241b565b9087820151156129d757840190818511610b28578d9061294e8d84612b1b565b9182101561254b576129628b92880161241b565b908c612972818b84511686612aac565b938491826129c1575b50506129ae5750506129a1575050898201918211610b285761290a91905b909150612900565b90915061290a9250612999565b9e509c50979a5050505050505050505050565b6129d092508b85511691612aac565b8c8e61297b565b919250508201809211610b285761290a91612999565b6064835162461bcd60e51b815260206004820152600360248201527f4f4c4400000000000000000000000000000000000000000000000000000000006044820152fd5b6128bd92508551612a408161203e565b60ff8b5483811683528060201c60060b602084015260581c1615158782015292506128b1565b96955096509750919550508084511690821614600014612a865750509190565b8261231493955061268d565b9064010000000064ffffffffff80931601918211610b2857565b63ffffffff808092169216828111801580612b0f575b612b045715612af557925b1690811115612ae7575b64ffffffffff8091169116111590565b612af090612a92565b612ad7565b612afe90612a92565b92612acd565b509290915016101590565b50838386161115612ac2565b811561247557069056fea264697066735822122072f3b235227dbfb7380342dcdbbb3a9e98e0a87ef1bdc140f80154ba3d82b1d764736f6c63430008130033a2646970667358221220e6d5e7c927af6e858727915ae5e50203c90017bfb2bd7405514f2deaa26b614c64736f6c63430008130033","linkReferences":{"src/libraries/FlashLoanHandler.sol":{"FlashLoanHandler":[{"start":23242,"length":20}]},"src/libraries/PositionHandler.sol":{"PositionHandler":[{"start":25265,"length":20}]},"src/libraries/SwapHandler.sol":{"SwapHandler":[{"start":20367,"length":20}]}}},"methodIdentifiers":{"addLiquidity((uint256,uint256,uint256,uint256,uint256))":"4caad396","approve(address,uint256)":"095ea7b3","balanceOf(address)":"70a08231","burn(uint256)":"42966c68","collect((uint256,uint128,uint128))":"5f032ef4","factory()":"c45a0155","getApproved(uint256)":"081812fc","isApprovedForAll(address,address)":"e985e9c5","mint((address,address,address,uint24,int24,int24,uint256,uint256,uint256,uint256))":"e7dd4c5a","name()":"06fdde03","ownerOf(uint256)":"6352211e","positions(uint256)":"99fbab88","removeLiquidity((uint256,uint128))":"12ba95ee","safeTransferFrom(address,address,uint256)":"42842e0e","safeTransferFrom(address,address,uint256,bytes)":"b88d4fde","setApprovalForAll(address,bool)":"a22cb465","supportsInterface(bytes4)":"01ffc9a7","symbol()":"95d89b41","tokenURI(uint256)":"c87b56dd","totalSupply()":"18160ddd","transferFrom(address,address,uint256)":"23b872dd","uniswapV3MintCallback(uint256,uint256,bytes)":"d3487997"},"id":29}