{"abi":[{"type":"constructor","inputs":[{"name":"factory_","type":"address","internalType":"address"}],"stateMutability":"nonpayable"},{"type":"function","name":"factory","inputs":[],"outputs":[{"name":"","type":"address","internalType":"address"}],"stateMutability":"view"},{"type":"function","name":"getPosition","inputs":[{"name":"params","type":"tuple","internalType":"struct IUniswapV3Manager.GetPositionParams","components":[{"name":"tokenA","type":"address","internalType":"address"},{"name":"tokenB","type":"address","internalType":"address"},{"name":"fee","type":"uint24","internalType":"uint24"},{"name":"owner","type":"address","internalType":"address"},{"name":"lowerTick","type":"int24","internalType":"int24"},{"name":"upperTick","type":"int24","internalType":"int24"}]}],"outputs":[{"name":"liquidity","type":"uint128","internalType":"uint128"},{"name":"feeGrowthInside0LastX128","type":"uint256","internalType":"uint256"},{"name":"feeGrowthInside1LastX128","type":"uint256","internalType":"uint256"},{"name":"tokensOwed0","type":"uint128","internalType":"uint128"},{"name":"tokensOwed1","type":"uint128","internalType":"uint128"}],"stateMutability":"view"},{"type":"function","name":"mint","inputs":[{"name":"params","type":"tuple","internalType":"struct IUniswapV3Manager.MintParams","components":[{"name":"tokenA","type":"address","internalType":"address"},{"name":"tokenB","type":"address","internalType":"address"},{"name":"fee","type":"uint24","internalType":"uint24"},{"name":"lowerTick","type":"int24","internalType":"int24"},{"name":"upperTick","type":"int24","internalType":"int24"},{"name":"amount0Desired","type":"uint256","internalType":"uint256"},{"name":"amount1Desired","type":"uint256","internalType":"uint256"},{"name":"amount0Min","type":"uint256","internalType":"uint256"},{"name":"amount1Min","type":"uint256","internalType":"uint256"}]}],"outputs":[{"name":"amount0","type":"uint256","internalType":"uint256"},{"name":"amount1","type":"uint256","internalType":"uint256"}],"stateMutability":"nonpayable"},{"type":"function","name":"swap","inputs":[{"name":"params","type":"tuple","internalType":"struct IUniswapV3Manager.SwapParams","components":[{"name":"path","type":"bytes","internalType":"bytes"},{"name":"recipient","type":"address","internalType":"address"},{"name":"amountIn","type":"uint256","internalType":"uint256"},{"name":"minAmountOut","type":"uint256","internalType":"uint256"}]}],"outputs":[{"name":"amountOut","type":"uint256","internalType":"uint256"}],"stateMutability":"nonpayable"},{"type":"function","name":"swapSingle","inputs":[{"name":"params","type":"tuple","internalType":"struct IUniswapV3Manager.SwapSingleParams","components":[{"name":"tokenIn","type":"address","internalType":"address"},{"name":"tokenOut","type":"address","internalType":"address"},{"name":"fee","type":"uint24","internalType":"uint24"},{"name":"amountIn","type":"uint256","internalType":"uint256"},{"name":"sqrtPriceLimitX96","type":"uint160","internalType":"uint160"}]}],"outputs":[{"name":"amountOut","type":"uint256","internalType":"uint256"}],"stateMutability":"nonpayable"},{"type":"function","name":"uniswapV3MintCallback","inputs":[{"name":"amount0","type":"uint256","internalType":"uint256"},{"name":"amount1","type":"uint256","internalType":"uint256"},{"name":"data","type":"bytes","internalType":"bytes"}],"outputs":[],"stateMutability":"nonpayable"},{"type":"function","name":"uniswapV3SwapCallback","inputs":[{"name":"amount0","type":"int256","internalType":"int256"},{"name":"amount1","type":"int256","internalType":"int256"},{"name":"data_","type":"bytes","internalType":"bytes"}],"outputs":[],"stateMutability":"nonpayable"},{"type":"error","name":"PRBMath_MulDiv_Overflow","inputs":[{"name":"x","type":"uint256","internalType":"uint256"},{"name":"y","type":"uint256","internalType":"uint256"},{"name":"denominator","type":"uint256","internalType":"uint256"}]},{"type":"error","name":"SlippageCheckFailed","inputs":[{"name":"amount0","type":"uint256","internalType":"uint256"},{"name":"amount1","type":"uint256","internalType":"uint256"}]},{"type":"error","name":"TooLittleReceived","inputs":[{"name":"amountOut","type":"uint256","internalType":"uint256"}]}],"bytecode":{"object":"0x60a03461007157601f614d5e38819003918201601f19168301916001600160401b038311848410176100765780849260209460405283398101031261007157516001600160a01b038116810361007157608052604051614cd1908161008d823960805181818161067901526111b70152f35b600080fd5b634e487b7160e01b600052604160045260246000fdfe608060405260043610156200001357600080fd5b60003560e01c8063049bbb12146200009557806397a90f61146200008f578063aa88a96c1462000089578063c45a01551462000083578063cf8c2a38146200007d578063d348799714620000775763fa461e33146200007157600080fd5b62000a25565b620008a8565b620007db565b62000657565b62000306565b62000173565b346200016e5760a03660031901126200016e576200016a6200015a608435620000be81620007c9565b600435620000cc81620007c9565b620000d662000b9f565b7fffffff0000000000000000000000000000000000000000000000000000000000602435916200010683620007c9565b6bffffffffffffffffffffffff19809460601b1660a05260e81b1660b45260601b1660b752602b6080526200013b60e0604052565b620001456200072b565b6080815233602082015290336064356200103a565b6040519081529081906020820190565b0390f35b600080fd5b346200016e5760c03660031901126200016e576200026c60a0620001c5620001b96200019e62000b72565b620001a862000b83565b620001b262000b9f565b91620010e6565b6001600160a01b031690565b620001cf62000b91565b620001d962000bbe565b6200022f620001e762000bcc565b60405160609490941b6bffffffffffffffffffffffff19166020850190815260e893841b6034860152921b603784015290919081603a81015b03601f19810183528262000708565b5190209060405180809581947f514ea4bf000000000000000000000000000000000000000000000000000000008352600483019190602083019252565b03915afa80156200030057600080918182908392620002bd575b604080516fffffffffffffffffffffffffffffffff958616815260208101969096528501528216606084015216608082015260a090f35b5050505050620002eb6200016a9160a03d8111620002f8575b620002e2818362000708565b81019062000c06565b9294508493929162000286565b503d620002d6565b62000c46565b346200016e576101203660031901126200016e576200032c620001b96200019e62000b72565b60409081517f3850c7bd00000000000000000000000000000000000000000000000000000000815260a081600481855afa80156200030057620003a49160009162000612575b50620003876200038162000bda565b62001c13565b90620003966200038162000bbe565b60c4359260a4359262001316565b620003ae62000bda565b90620003b962000bbe565b928451937f0dfe16810000000000000000000000000000000000000000000000000000000085526020938486600481865afa9586156200030057600096620005ee575b508651907fd21220a70000000000000000000000000000000000000000000000000000000082528582600481875afa80156200030057889662000475620004c2926000958691620005ba575b5062000466620004576200074c565b6001600160a01b03909c168c52565b6001600160a01b03168a830152565b3389890152620004b38851998a92830191909160406060820193816001600160a01b0391828151168552826020820151166020860152015116910152565b03601f19810189528862000708565b620004fd8651978896879586947f3c8a7d8d000000000000000000000000000000000000000000000000000000008652336004870162000d29565b03925af19182156200030057600091829362000582575b5060e4358210801562000575575b6200053857519081526020810191909152604090f35b517fa8f6c8d000000000000000000000000000000000000000000000000000000000815260048101919091526024810191909152604490fd5b0390fd5b5061010435831062000522565b90809350620005aa92503d8411620005b2575b620005a1818362000708565b81019062000cd0565b913862000514565b503d62000595565b620005df9150833d8511620005e6575b620005d6818362000708565b81019062000cb8565b3862000448565b503d620005ca565b6200060a919650853d8711620005e657620005d6818362000708565b9438620003fc565b62000638915060a03d811162000643575b6200062f818362000708565b81019062000c62565b505050503862000372565b503d62000623565b60009103126200016e57565b346200016e5760003660031901126200016e5760206040516001600160a01b037f0000000000000000000000000000000000000000000000000000000000000000168152f35b634e487b7160e01b600052604160045260246000fd5b6080810190811067ffffffffffffffff821117620006d057604052565b6200069d565b67ffffffffffffffff8111620006d057604052565b6060810190811067ffffffffffffffff821117620006d057604052565b90601f8019910116810190811067ffffffffffffffff821117620006d057604052565b604051906040820182811067ffffffffffffffff821117620006d057604052565b604051906200075b82620006eb565b565b906200075b604051928362000708565b81601f820112156200016e5780359067ffffffffffffffff8211620006d05760405192620007a6601f8401601f19166020018562000708565b828452602083830101116200016e57816000926020809301838601378301015290565b6001600160a01b038116036200016e57565b346200016e576003196020368201126200016e5760043567ffffffffffffffff918282116200016e5760809082360301126200016e576040516200081f81620006b3565b81600401359283116200016e5760646200015a92620008496200016a95600436918401016200076d565b835260248101356200085b81620007c9565b6020840152604481013560408401520135606082015262000d75565b9181601f840112156200016e5782359167ffffffffffffffff83116200016e57602083818601950101116200016e57565b346200016e5760603660031901126200016e5760443567ffffffffffffffff81116200016e57620008e2620008eb91369060040162000877565b8101906200123b565b62000905620001b9620001b983516001600160a01b031690565b9060408101906200091d82516001600160a01b031690565b91833b156200016e576040516323b872dd60e01b8082526001600160a01b039490941660048083019190915233602483015235604482015260009485908290606490829084905af180156200030057620001b9620001b960208896620009a595620009979562000a0e575b5001516001600160a01b031690565b91516001600160a01b031690565b90803b1562000a0a576040519384526001600160a01b03919091166004840152336024808501919091523560448401528290606490829084905af180156200030057620009f0575080f35b8062000a0062000a0792620006d6565b806200064b565b80f35b8280fd5b8062000a0062000a1e92620006d6565b3862000988565b346200016e5760603660031901126200016e5760443567ffffffffffffffff81116200016e5762000a5f62000a6891369060040162000877565b810190620012a2565b62000a7481516200182f565b506001600160a01b039182169190811682101562000b625762000aa56020600435945b01516001600160a01b031690565b908116300362000b1d5750803b156200016e576040517fa9059cbb00000000000000000000000000000000000000000000000000000000815233600482015260248101929092526000908290818381604481015b03925af18015620003005762000b0b57005b8062000a0062000b1b92620006d6565b005b9091823b156200016e576040516323b872dd60e01b81526001600160a01b03909216600483015233602483015260448201529060009082908183816064810162000af9565b62000aa560206024359462000a97565b60043562000b8081620007c9565b90565b60243562000b8081620007c9565b60643562000b8081620007c9565b60443562ffffff811681036200016e5790565b8060020b036200016e57565b60843562000b808162000bb2565b60a43562000b808162000bb2565b60643562000b808162000bb2565b51906fffffffffffffffffffffffffffffffff821682036200016e57565b908160a09103126200016e5762000c1d8162000be8565b9160208201519160408101519162000b80608062000c3e6060850162000be8565b930162000be8565b6040513d6000823e3d90fd5b519061ffff821682036200016e57565b908160a09103126200016e57805162000c7b81620007c9565b91602082015162000c8c8162000bb2565b9162000c9b6040820162000c52565b9162000b80608062000cb06060850162000c52565b930162000c52565b908160209103126200016e575162000b8081620007c9565b91908260409103126200016e576020825192015190565b919082519283825260005b84811062000d14575050826000602080949584010152601f8019910116010190565b60208183018101518483018201520162000cf2565b919360a09362000b8096956001600160a01b036fffffffffffffffffffffffffffffffff9416855260020b602085015260020b6040840152166060820152816080820152019062000ce7565b906000335b83519062000dcc60428351101591604087019384518460001462000e2f5762000dc662000da830936200169e565b9362000db36200072b565b9485526001600160a01b03166020850152565b62000f1f565b80925260001462000ded57503062000de5845162001785565b845262000d7a565b60609150920151821062000dfd57565b6040517f4704aaf800000000000000000000000000000000000000000000000000000000815260048101839052602490fd5b62000dc662000da862000e4c60208c01516001600160a01b031690565b936200169e565b634e487b7160e01b600052601160045260246000fd5b6001600160a01b03918216908216039190821162000e8357565b62000e53565b6020815260406001600160a01b03602062000eaf85518483870152606086019062000ce7565b9401511691015290565b919360a09362000b8096956001600160a01b038094168552151560208501526040840152166060820152816080820152019062000ce7565b7f8000000000000000000000000000000000000000000000000000000000000000811462000e835760000390565b60409062000f579392620001b9600062000f3a86516200182f565b6001600160a01b039992949199808b1690861610998a95620010e6565b92828214620010125762000fb96200022062000f836401000276a4995b89519283916020830162000e89565b8751988997889687957fdd5a12d80000000000000000000000000000000000000000000000000000000087526004870162000eb9565b03925af1908115620003005762000b8092600091829362000feb575b501562000fe3575062000ef1565b905062000ef1565b9092506200100a915060403d8111620005b257620005a1818362000708565b913862000fd5565b62000fb96200022062000f8373fffd8963efd1fc6a506488495d951d5263988d259962000f74565b60006040929493946200104e85516200182f565b939192909762001074620001b96001600160a01b0396878c16888816109b8c97620010e6565b948116158314620010d25750828214620010ab5762000fb96200022062000f836401000276a45b9989519283916020830162000e89565b62000fb96200022062000f8373fffd8963efd1fc6a506488495d951d5263988d256200109b565b6200022062000f8362000fb9929962000f74565b6001600160a01b0392908284168482161015620012345791925b80841690831610156200016e5762000b8092620001b9927fffffff0000000000000000000000000000000000000000000000000000000000620001b9936040519260208401946bffffffffffffffffffffffff19809260601b16865260601b16603484015260e81b166048820152602b81526200117d81620006eb565b5190206200022062001225612d1f62001199602082016200075d565b818152602081019162001f7d833951902060405192839160208301957f00000000000000000000000000000000000000000000000000000000000000008791605593917fff0000000000000000000000000000000000000000000000000000000000000084526bffffffffffffffffffffffff199060601b166001840152601583015260358201520190565b5190206001600160a01b031690565b9262001100565b908160609103126200016e5760405190606082019082821067ffffffffffffffff831117620006d057604091825280356200127681620007c9565b835260208101356200128881620007c9565b602084015201356200129a81620007c9565b604082015290565b906020828203126200016e57813567ffffffffffffffff928382116200016e57016040818303126200016e57604051926040840184811082821117620006d05760405281359081116200016e57602092620012ff9183016200076d565b835201356200130e81620007c9565b602082015290565b9390936001600160a01b0380841681871611620013a8575b8181169086811682116200134b575050505062000b8092620013b1565b9294919391928216106200139a5782916200136c91620013739594620013b1565b936200162c565b6fffffffffffffffffffffffffffffffff818116908316101562001395575090565b905090565b91505062000b80926200162c565b9492946200132e565b9162001403916fffffffffffffffffffffffffffffffff936001600160a01b03908183168282161162001407575b620013fb90620013f483851684831662001443565b9362000e69565b169162001583565b1690565b91620013df565b634e487b7160e01b600052601260045260246000fd5b801562001432576000190490565b6200140e565b811562001432570490565b6000198282099082810292838084109303928084039314620014ad576c0100000000000000000000000091828410156200148a570990828211900360a01b910360601c1790565b8260649260405192630c740aef60e31b8452600484015260248301526044820152fd5b50505060601c90565b6c0100000000000000000000000091600019838309928260601b928380861095039480860395146200157457828510156200153e57908291096001821901821680920460028082600302188083028203028083028203028083028203028083028203028083028203028092029003029360018380600003040190848311900302920304170290565b604051630c740aef60e31b815260048101919091526c010000000000000000000000006024820152604481019290925250606490fd5b50509062000b80925062001438565b90916000198383099280830292838086109503948086039514620015745782851015620015fd57908291096001821901821680920460028082600302188083028203028083028203028083028203028083028203028083028203028092029003029360018380600003040190848311900302920304170290565b6200057183604051938493630c740aef60e31b8552600485016040919493926060820195825260208201520152565b916200140391620016636fffffffffffffffffffffffffffffffff946001600160a01b0392838116848316116200166b5762000e69565b1690620014b6565b9062000e69565b90601f820180921162000e8357565b601701908160171162000e8357565b9190820180921162000e8357565b620016ae602b8251101562001739565b60405190600b8083019101603683015b808310620016d9575050602b8252601f01601f191660405290565b9091825181526020809101920190620016be565b15620016f557565b606460405162461bcd60e51b815260206004820152600e60248201527f736c6963655f6f766572666c6f770000000000000000000000000000000000006044820152fd5b156200174157565b606460405162461bcd60e51b815260206004820152601160248201527f736c6963655f6f75744f66426f756e64730000000000000000000000000000006044820152fd5b8051601619918282019082821162000e8357620017af82620017a78162001672565b1015620016ed565b620017c88151620017c08462001681565b111562001739565b81620017e35750505050604051600081526020810160405290565b601760405194601f8416801560051b9182828901019687010193010101905b8084106200181b5750508252601f01601f191660405290565b909283518152602080910193019062001802565b906014825110620018a457602082015160601c91601781511062001860576200185d601782015191620018e8565b91565b606460405162461bcd60e51b815260206004820152601460248201527f746f55696e7432345f6f75744f66426f756e64730000000000000000000000006044820152fd5b606460405162461bcd60e51b815260206004820152601560248201527f746f416464726573735f6f75744f66426f756e647300000000000000000000006044820152fd5b602b815110620018a4576037015160601c90565b156200190457565b606460405162461bcd60e51b815260206004820152600160248201527f54000000000000000000000000000000000000000000000000000000000000006044820152fd5b906ffff97272373d413259a46990580e213a9182810292818404149015171562000e8357565b906ffff2e50f5f656932ef12357cf3c7fdcc9182810292818404149015171562000e8357565b906fffe5caca7e10e4e61c3624eaa0941cd09182810292818404149015171562000e8357565b906fffcb9843d60f6159c9db58835c9266449182810292818404149015171562000e8357565b906fff973b41fa98c081472e6896dfb254c09182810292818404149015171562000e8357565b906fff2ea16466c96a3843ec78b326b528619182810292818404149015171562000e8357565b906ffe5dee046a99a2a811c461f1969c30539182810292818404149015171562000e8357565b906ffcbe86c7900a88aedcffc83b479aa3a49182810292818404149015171562000e8357565b906ff987a7253ac413176f2b074cf7815e549182810292818404149015171562000e8357565b906ff3392b0822b70005940c7a398e4b70f39182810292818404149015171562000e8357565b906fe7159475a2c29b7443b29c7fa6e889d99182810292818404149015171562000e8357565b906fd097f3bdfd2022b8845ad8f792aa58259182810292818404149015171562000e8357565b906fa9f746462d870fdf8a65dc1f90e061e59182810292818404149015171562000e8357565b906f70d869a156d2a1b890bb3df62baf32f79182810292818404149015171562000e8357565b906f31be135f97d08fd981231505542fcfa69182810292818404149015171562000e8357565b906f09aa508b5b7a84e1c677de54f3e99bc99182810292818404149015171562000e8357565b906e5d6af8dedb81196699c329225ee6049182810292818404149015171562000e8357565b906d2216e584f5fa1ea926041bedfe989182810292818404149015171562000e8357565b906b048a170391f7dc42444e8fa29182810292818404149015171562000e8357565b620001b962000b809160020b6000811260001462001f755762001c368162000ef1565b905b62001c49620d89e8831115620018fc565b600182161562001f4b5770ffffffffffffffffffffffffffffffffff6ffffcb933bd6fad37aa2d162d1a5940015b16916002811662001f34575b6004811662001f1d575b6008811662001f06575b6010811662001eef575b6020811662001ed8575b6040811662001ec1575b6080811662001eaa575b610100811662001e93575b610200811662001e7c575b610400811662001e65575b610800811662001e4e575b611000811662001e37575b612000811662001e20575b614000811662001e09575b618000811662001df2575b62010000811662001ddb575b62020000811662001dc4575b62040000811662001da7575b620800001662001d86575b60001262001d75575b63ffffffff811662001d6b5760ff60005b169060201c62001690565b60ff600162001d60565b62001d809062001424565b62001d4f565b9062001d9e62001d9860009262001bf1565b60801c90565b91905062001d46565b9162001dbb62001d98620800009262001bcd565b92905062001d3b565b9162001d9862001dd49162001ba8565b9162001d2f565b9162001d9862001deb9162001b82565b9162001d23565b9162001d9862001e029162001b5c565b9162001d17565b9162001d9862001e199162001b36565b9162001d0c565b9162001d9862001e309162001b10565b9162001d01565b9162001d9862001e479162001aea565b9162001cf6565b9162001d9862001e5e9162001ac4565b9162001ceb565b9162001d9862001e759162001a9e565b9162001ce0565b9162001d9862001e8c9162001a78565b9162001cd5565b9162001d9862001ea39162001a52565b9162001cca565b9162001d9862001eba9162001a2c565b9162001cbf565b9162001d9862001ed19162001a06565b9162001cb5565b9162001d9862001ee891620019e0565b9162001cab565b9162001d9862001eff91620019ba565b9162001ca1565b9162001d9862001f169162001994565b9162001c97565b9162001d9862001f2d916200196e565b9162001c8d565b9162001d9862001f449162001948565b9162001c83565b70ffffffffffffffffffffffffffffffffff70010000000000000000000000000000000062001c77565b8062001c3856fe61012080604052346200019857630890357360e41b815260a090600090828160048185335af19182156200018c578091818091818096620000dc575b505061010094855260e05260c052835260805260405190612b5b9283620001c484396080518361130b015251828181610db5015281816118ff01528181611a4c01528181611f600152612354015260c051828181610ddd015281816112870152818161183d01528181611a7301526123e7015260e051828181610e71015281816112c7015261219d015251818181610ca001528181610e490152611aaa0152f35b94509450505050823d841162000184575b601f8101601f191683016001600160401b03811184821017620001705784918491604052810103126200016d575062000126816200019d565b9062000135602082016200019d565b9062000144604082016200019d565b906200016160806200015960608401620001b2565b9201620001b2565b9392919038806200003b565b80fd5b634e487b7160e01b83526041600452602483fd5b503d620000ed565b604051903d90823e3d90fd5b600080fd5b51906001600160a01b03821682036200019857565b519062ffffff82168203620001985756fe608080604052600436101561001357600080fd5b600090813560e01c9081630dfe168114611f41575080631a68650214611f1a578063252c09d714611ecc57806332148f6714611e205780633850c7bd14611dca5780633c8a7d8d14611b665780634614131914611b485780634a182392146119ba5780634f1eb3d8146116c2578063514ea4bf146116605780635339c2961461162a578063883bdbfd146114a4578063a34123a71461132f578063c45a0155146112eb578063d0c93a7c146112ab578063d21220a714611267578063dd5a12d814610cc4578063ddca3f4314610c84578063f305839914610c67578063f30dba9314610bf85763f637731d1461010857600080fd5b34610bf557602080600319360112610bf157610122611f84565b9060029182546001600160a01b0392838216610bc757838316926401000276a384101580610baa575b15610b665777ffffffffffffffffffffffffffffffffffffffff0000000090821b1680916001600160801b03821160071b9582871c9367ffffffffffffffff851160061b94851c9763ffffffff9889811160051b90811c61ffff811160041b90811c60ff811160031b90811c918d600f8411901b92831c9360019a8b60038711811b96871c1196171717171717179060809485831015600014610b525750607e1982018281116106c3571c5b607f1982019182138616610b2857800280607f1c8160ff1c1c800280607f1c8160ff1c1c800280607f1c8160ff1c1c800280607f1c8160ff1c1c800280607f1c8160ff1c1c800280607f1c8160ff1c1c80029081607f1c8260ff1c1c80029283607f1c8460ff1c1c80029485607f1c8660ff1c1c80029687607f1c8860ff1c1c80029889607f1c8a60ff1c1c80029a8b607f1c8c60ff1c1c80029c8d80607f1c9060ff1c1c800260cd1c6604000000000000169d60cc1c6608000000000000169c60cb1c6610000000000000169b60ca1c6620000000000000169a60c91c6640000000000000169960c81c6680000000000000169860c71c670100000000000000169760c61c670200000000000000169660c51c670400000000000000169560c41c670800000000000000169460c31c671000000000000000169360c21c672000000000000000169260c11c674000000000000000169160c01c678000000000000000169060401b171717171717171717171717171790693627a301d71055774c8591828102928184051490151715610b3e577ffffffffffffffffffffffffffffffffffd709b7e5480fba5a50fed5e62ffc55682018281138616610b2857841d890b916fdb2df09e81959a81455e260799a0632f908b8282019283129112908015821691151617610b14578a929190851d8a0b908183036104c957505094600160d81b979462ffffff60a01b9461ffff60d81b1998946b0100000000000000000000007fffffffffff00000000000000000000000000000000000000000000000000000095600160c81b9a995b421685604080516104558161203e565b838152848782015201526affffffffffffff0000000060075492851b16916bffffffffffffffffffffffff19161717176007556040519061049582612022565b868252888d0b908201528c6040820152826060820152015216179160a01b161761ffff60b81b8660b81b1617171617905580f35b9092508a831215610b0e576104dd83612297565b620d89e88111610acb578b9392919087811615610aa25770ffffffffffffffffffffffffffffffffff6ffffcb933bd6fad37aa2d162d1a5940015b16908c8116610a6d575b60048116610a38575b60088116610a03575b601081166109ce575b868116610999575b60408116610964575b87811661092f575b61010081166108fa575b61020081166108c5575b6104008116610890575b610800811661085b575b6110008116610826575b61200081166107f1575b61400081166107bc575b6180008116610787575b620100008116610752575b62020000811661071e575b6204000081166106d7575b6208000016610694575b848413610667575b946b01000000000000000000000085600160c81b9a958d9a958d600160d81b9f9661ffff60d81b199f9b61064a9062ffffff60a01b9e997fffffffffff0000000000000000000000000000000000000000000000000000009d5081161560001461065f5760ff875b1690891c61209d565b161161065857505b99610445565b9050610652565b60ff8b610641565b80919293945015610680578b93929190600019046105d9565b60248c634e487b7160e01b81526012600452fd5b90919293506b048a170391f7dc42444e8fa2908181029181830414901517156106c357908b939291861c6105d1565b60248c634e487b7160e01b81526011600452fd5b91929394506d2216e584f5fa1ea926041bedfe989081810291818304149015171561070a578c9493929190871c906105c7565b60248d634e487b7160e01b81526011600452fd5b91929394506e5d6af8dedb81196699c329225ee6049081810291818304149015171561070a57908c94939291871c906105bc565b91929394506f09aa508b5b7a84e1c677de54f3e99bc99081810291818304149015171561070a57908c94939291871c906105b1565b91929394506f31be135f97d08fd981231505542fcfa69081810291818304149015171561070a57908c94939291871c906105a6565b91929394506f70d869a156d2a1b890bb3df62baf32f79081810291818304149015171561070a57908c94939291871c9061059c565b91929394506fa9f746462d870fdf8a65dc1f90e061e59081810291818304149015171561070a57908c94939291871c90610592565b91929394506fd097f3bdfd2022b8845ad8f792aa58259081810291818304149015171561070a57908c94939291871c90610588565b91929394506fe7159475a2c29b7443b29c7fa6e889d99081810291818304149015171561070a57908c94939291871c9061057e565b91929394506ff3392b0822b70005940c7a398e4b70f39081810291818304149015171561070a57908c94939291871c90610574565b91929394506ff987a7253ac413176f2b074cf7815e549081810291818304149015171561070a57908c94939291871c9061056a565b91929394506ffcbe86c7900a88aedcffc83b479aa3a49081810291818304149015171561070a57908c94939291871c90610560565b91929394506ffe5dee046a99a2a811c461f1969c30539081810291818304149015171561070a57908c94939291871c90610556565b91929394506fff2ea16466c96a3843ec78b326b528619081810291818304149015171561070a57908c94939291871c9061054e565b91929394506fff973b41fa98c081472e6896dfb254c09081810291818304149015171561070a57908c94939291871c90610545565b91929394506fffcb9843d60f6159c9db58835c9266449081810291818304149015171561070a57908c94939291871c9061053d565b91929394506fffe5caca7e10e4e61c3624eaa0941cd09081810291818304149015171561070a57908c94939291871c90610534565b91929394506ffff2e50f5f656932ef12357cf3c7fdcc9081810291818304149015171561070a57908c94939291871c9061052b565b91929394506ffff97272373d413259a46990580e213a9081810291818304149015171561070a57908c94939291871c90610522565b70ffffffffffffffffffffffffffffffffff700100000000000000000000000000000000610518565b606485886040519162461bcd60e51b8352600483015260248201527f54000000000000000000000000000000000000000000000000000000000000006044820152fd5b826104dd565b60248b634e487b7160e01b81526011600452fd5b634e487b7160e01b600052601160045260246000fd5b60248a634e487b7160e01b81526011600452fd5b905081607f03607f81116106c3571b6101f7565b6064826040519062461bcd60e51b82526004820152600160248201527f52000000000000000000000000000000000000000000000000000000000000006044820152fd5b5073fffd8963efd1fc6a506488495d951d5263988d26841061014b565b60046040517f0dc149f0000000000000000000000000000000000000000000000000000000008152fd5b5080fd5b80fd5b5034610bf5576020366003190112610bf557604060a091610c17611fba565b60020b81526004602052208054906001810154600f0b9060036002820154910154916001600160801b036040519460ff81161515865260081c166020850152604084015260608301526080820152f35b5034610bf55780600319360112610bf55760209054604051908152f35b5034610bf55780600319360112610bf557602060405162ffffff7f0000000000000000000000000000000000000000000000000000000000000000168152f35b5034610bf55760a0366003190112610bf557610cde611f84565b90602435151560243503610bf5576064356001600160a01b03811681036112625760843567ffffffffffffffff81116110e457610d1f903690600401611fe0565b929060405191610d2e83612022565b6002546001600160a01b03811684528060a01c60020b602085015261ffff8160b81c16604085015261ffff8160c81c16606085015261ffff8160d81c1660808501526001600160801b0360035416825490600154926001600160a01b03604051987f27954896000000000000000000000000000000000000000000000000000000008a52817f00000000000000000000000000000000000000000000000000000000000000001660048b0152817f00000000000000000000000000000000000000000000000000000000000000001660248b0152818c1660448b0152602435151560648b015260443560848b01521660a48901526001600160a01b03811660c489015260a01c60020b60e488015261010487015262ffffff807f0000000000000000000000000000000000000000000000000000000000000000166101248801527f000000000000000000000000000000000000000000000000000000000000000016610144870152600561016487015260046101848701526101a48601526101c485015260e0846101e48173__$d17d1fe473380c67ec84e69d3dc368d5c4$__5af4948515611255578195829583848597869387956111c8575b50602081015160020b90818360020b141560001461118e5792610f3c62ffffff60a01b928561ffff604061ffff60b81b980151169161ffff608081606085015116930151169263ffffffff42169061248b565b9490917fffffffffff0000000000000000000000000000000000000000000000000000007affff000000000000000000000000000000000000000000000000006001600160a01b0360025493169760c81b169116179160b81b16179160a01b1617176002555b6001600160801b03600354961686816001600160801b0381991603611170575b50508355600155602435156110e857610fd961232f565b92333b156110e457611004918391604051938492839263fa461e3360e01b84528a8c600486016122f8565b038183335af180156110d957908692916110c1575b50506110249161209d565b61102c61232f565b10611097576001600160a01b036040945b60025486519386855285602086015283821688860152606085015260a01c60020b608084015216907fc42079f94a6350d7e6235f29174924f928cc2ac818eb64fed8004e115fbcca6760a03392a382519182526020820152f35b60046040517f098fb561000000000000000000000000000000000000000000000000000000008152fd5b8192506110cd9061200e565b610bf557808591611019565b6040513d84823e3d90fd5b8280fd5b6110f06123c2565b92333b156110e45761111b918391604051938492839263fa461e3360e01b84528a8c600486016122f8565b038183335af180156110d95790859291611158575b505061113b9161209d565b6111436123c2565b10611097576001600160a01b0360409461103d565b8192506111649061200e565b610bf557808491611130565b6fffffffffffffffffffffffffffffffff1916176003558538610fc2565b5050506001600160a01b03167fffffffffffffffffffffffff00000000000000000000000000000000000000006002541617600255610fa2565b9850995050505050935060e0833d60e01161124d575b816111eb60e0938361205a565b81010312610bf5578251936020840151956040850151956001600160a01b03871687036112495760608601518060020b81036112455761122d608088016120aa565b60c060a0890151980151929998919097929338610ee9565b8480fd5b8380fd5b3d91506111de565b50604051903d90823e3d90fd5b600080fd5b5034610bf55780600319360112610bf55760206040516001600160a01b037f0000000000000000000000000000000000000000000000000000000000000000168152f35b5034610bf55780600319360112610bf557602060405162ffffff7f0000000000000000000000000000000000000000000000000000000000000000168152f35b5034610bf55780600319360112610bf55760206040516001600160a01b037f0000000000000000000000000000000000000000000000000000000000000000168152f35b5034610bf5576060366003190112610bf557611349611fba565b611351611f9a565b604435906001600160801b038083168093036112625782600f0b7fffffffffffffffffffffffffffffffff80000000000000000000000000000000811461149057916113b593916113ac6113bb9694604098038386336120be565b97919690612297565b96612297565b948615801590611487575b611417575b50508551918252846020830152838683015260020b9160020b907f0c396cd989a39f4459b5fa1aed6a9a8dcdbc45908acfd67e028cd568da98982c60603392a482519182526020820152f35b60030190815461146761143e611431848b168585166122c4565b92848a169060801c6122c4565b84546001600160801b031660809190911b6fffffffffffffffffffffffffffffffff1916178455565b166fffffffffffffffffffffffffffffffff1982541617905538806113cb565b508515156113c6565b602486634e487b7160e01b81526011600452fd5b5034610bf557602080600319360112610bf1576004359167ffffffffffffffff808411610bf15736602385011215610bf1578360040135908111610bf157602493848260051b8201013681116112495763ffffffff90814216600254928360a01c60020b9261ffff808660b81c169560c81c169561152188612317565b9761152f604051998a61205a565b88528a018988015b82821061160e5750505085519561156661155088612317565b9761155e604051998a61205a565b808952612317565b878a0190601f1901368237885b82518110156115c9576115958888888761158d86896126f3565b511689612707565b61159f828b6126f3565b9060060b905260001981146115b657600101611573565b8b8a634e487b7160e01b81526011600452fd5b888b838c60405193838594850191818652518092526040850193925b8281106115f457505050500390f35b835160060b855286955093810193928101926001016115e5565b81358481168103611626578152908a01908a01611537565b8a80fd5b5034610bf5576020366003190112610bf5576004358060010b809103610bf1578160409160209352600583522054604051908152f35b5034610bf5576020366003190112610bf557604060a09160043581526006602052206001600160801b039081815416916001820154916003600282015491015492604051948552602085015260408401528116606083015260801c6080820152f35b5034610bf55760a0366003190112610bf5576116dc611f84565b6116e4611f9a565b916116ed611faa565b926116f6611fca565b92608435946001600160801b0393848716948588036112625760405160208101903360601b82528660e81b60348201528460e81b6037820152601a81526040810181811067ffffffffffffffff8211176119a45760405251902082526006602052600360408320019788549682881698898482161160001461199e575088915b8860801c8092116000146119965750965b82821698838a6118d3575b50505050851694856117f8575b5050604095506001600160a01b03865192168252846020830152838683015260020b9160020b907fa89c1c8a741251492622c95237828c75d1dbb03ea956f09e3792ff2a14f4fe6260603392a482519182526020820152f35b6118338861180b83859b5460801c6122df565b6001600160801b036fffffffffffffffffffffffffffffffff1983549260801b169116179055565b6001600160a01b037f00000000000000000000000000000000000000000000000000000000000000001690813b156110e45760405163a9059cbb60e01b81526001600160a01b03861660048201526001600160801b0391909116602482015291908290604490829084905af180156118c8576118b0575b8061179f565b6118ba879161200e565b6118c457856118aa565b8580fd5b6040513d89823e3d90fd5b6118ef846fffffffffffffffffffffffffffffffff19936122df565b1691161789556001600160a01b037f00000000000000000000000000000000000000000000000000000000000000001690813b156112495760405163a9059cbb60e01b81526001600160a01b03871660048201526001600160801b039190911660248201529083908290604490829084905af1801561198b57908391611977575b8083611792565b6119809061200e565b610bf1578138611970565b6040513d85823e3d90fd5b905096611787565b91611776565b634e487b7160e01b600052604160045260246000fd5b5034610bf5576060366003190112610bf5576004356024358260443567ffffffffffffffff8111610bf1576119f3903690600401611fe0565b919073__$f9857a4711eec40b8ae03426d7155b8866$__803b156110e457611ae6936040518095819482937f8d0d22a00000000000000000000000000000000000000000000000000000000084526001600160a01b03807f00000000000000000000000000000000000000000000000000000000000000001660048601527f00000000000000000000000000000000000000000000000000000000000000001660248501528a604485015289606485015262ffffff7f00000000000000000000000000000000000000000000000000000000000000001660848501523360a485015260e060c485015260e484019161207c565b03915af48015611b3d57611b2a575b5060405191825260208201527f1c1db1f1d6a01e51fec24bb54087b65fe5430f692280e70d92f718eb72ae76b760403392a280f35b611b369093919361200e565b9138611af5565b6040513d86823e3d90fd5b5034610bf55780600319360112610bf5576020600154604051908152f35b5034610bf55760a0366003190112610bf557611b80611f84565b90611b89611f9a565b611b91611faa565b611b99611fca565b60843567ffffffffffffffff811161124557611bb9903690600401611fe0565b93908360020b938260020b93858512801590611dbd575b8015611db1575b611d87576001600160801b0316928315611d5d57611bfa9184600f0b918a6120be565b969150968081928915159283611d4d575b8915159586611d3d575b333b15610bf1578a8c611c69849360405196879485947fd34879970000000000000000000000000000000000000000000000000000000086526004860152602485015260606044850152606484019161207c565b038183335af1908115611d315750908a9291611d22575b5082611d08575b505061109757859082611cee575b5050611097577f7a53080ba414158be7ec69b987b5fb7d07dee101fe85488f0853ae16239d0bde60806001600160a01b036040988951943386526020860152888a8601528760608601521692a482519182526020820152f35b611cf8925061209d565b611d006123c2565b108438611c95565b611d12925061209d565b611d1a61232f565b108738611c87565b611d2b9061200e565b38611c80565b604051903d90823e3d90fd5b9450611d476123c2565b94611c15565b9150611d5761232f565b91611c0b565b60046040517f10074548000000000000000000000000000000000000000000000000000000008152fd5b60046040517f064847d0000000000000000000000000000000000000000000000000000000008152fd5b50620d89e88613611bd7565b50620d89e7198512611bd0565b5034610bf55780600319360112610bf55760a0600254604051906001600160a01b038116825280831c60020b602083015261ffff90818160b81c166040840152818160c81c16606084015260d81c166080820152f35b5034610bf5576020366003190112610bf55760043561ffff80821682036110e457611e538160025460d81c16928361259d565b90811691808303611e62578380f35b7fac49e518f90a358f652e4400164f05a5d8f7e35e7747279bc3a93dbf584e125a9260409261ffff60d81b197cffff0000000000000000000000000000000000000000000000000000006002549260d81b1691161760025582519182526020820152a13880808380f35b5034610bf5576020366003190112610bf55760043561ffff811015610bf1576060906007015460ff6040519163ffffffff811683528060201c60060b602084015260581c1615156040820152f35b5034610bf55780600319360112610bf55760206001600160801b0360035416604051908152f35b905034610bf15781600319360112610bf1576020906001600160a01b037f0000000000000000000000000000000000000000000000000000000000000000168152f35b600435906001600160a01b038216820361126257565b602435908160020b820361126257565b604435908160020b820361126257565b600435908160020b820361126257565b606435906001600160801b038216820361126257565b9181601f840112156112625782359167ffffffffffffffff8311611262576020838186019501011161126257565b67ffffffffffffffff81116119a457604052565b60a0810190811067ffffffffffffffff8211176119a457604052565b6060810190811067ffffffffffffffff8211176119a457604052565b90601f8019910116810190811067ffffffffffffffff8211176119a457604052565b908060209392818452848401376000828201840152601f01601f1916010190565b91908201809211610b2857565b51906001600160801b038216820361126257565b9390916040938451608081019181831067ffffffffffffffff8411176119a4577f4d8b54ac0000000000000000000000000000000000000000000000000000000095879384526001600160a01b0380991683526020830191600291820b835284840195820b86526060840190600f0b8152898254916001600160801b039788600354169560009d8e54986001549a519d8e52511660048d015251850b60248c015251840b60448b015251600f0b60648a0152600660848a0152600460a48a0152600560c48a0152811660e489015260a01c900b61010487015262ffffff7f0000000000000000000000000000000000000000000000000000000000000000166101248701526101448601526101648501526101848401526080836101a48173__$ee58cc6b4b385dce4aa659b5a6a51152a5$__5af494851561228c5780948194828098612238575b505050929394816003549116918116820361221f575050565b6fffffffffffffffffffffffffffffffff191617600355565b93975094509450506080833d8211612284575b816122586080938361205a565b81010312610bf55750815193612279606060208501519585015194016120aa565b949392388080612206565b3d915061224b565b8451903d90823e3d90fd5b7f80000000000000000000000000000000000000000000000000000000000000008114610b285760000390565b9190916001600160801b0380809416911601918211610b2857565b6001600160801b039182169082160391908211610b2857565b612314949260609282526020820152816040820152019161207c565b90565b67ffffffffffffffff81116119a45760051b60200190565b6040516370a0823160e01b815230600482015260208160248160006001600160a01b037f0000000000000000000000000000000000000000000000000000000000000000165af19081156123b657600091612388575090565b906020823d82116123ae575b816123a16020938361205a565b81010312610bf557505190565b3d9150612394565b6040513d6000823e3d90fd5b6040516370a0823160e01b815230600482015260208160248160006001600160a01b037f0000000000000000000000000000000000000000000000000000000000000000165af19081156123b657600091612388575090565b906040516124288161203e565b604060ff82945463ffffffff811684528060201c60060b602085015260581c161515910152565b90600161ffff80931601918211610b2857565b9061ffff80911691821561247557160690565b634e487b7160e01b600052601260045260246000fd5b94929161ffff918287101561254b576124a68760070161241b565b9663ffffffff9485895116868416146125925784811680868a1611908161256b575b50916124e8986124ed926124f3969594600014612561575098899161244f565b612462565b9761268d565b9085101561254b5784600701918151168254906affffffffffffff000000006bff00000000000000000000006040602086015160201b950151151560581b169316916bffffffffffffffffffffffff19161717179055565b634e487b7160e01b600052603260045260246000fd5b905098899161244f565b905060009493929194190190858211610b28579293919291908516858316146124e86124c8565b909750955050505050565b61ffff9081831690828116821115612614575b81838216106125bf5750505090565b828110156125ff5760078101805463ffffffff1916600117905582168083146125ea576001016125b0565b60246000634e487b7160e01b81526011600452fd5b60246000634e487b7160e01b81526032600452fd5b9250505090565b604051906126288261203e565b60006040838281528260208201520152565b63ffffffff9182169082160391908211610b2857565b9060060b9060060b02908160060b918203610b2857565b9060060b9060060b0190667fffffffffffff198212667fffffffffffff831317610b2857565b6126d09092919261269c61261b565b506126c763ffffffff936020856126b6818651168961263a565b169301519260060b9060020b612650565b9060060b612667565b90604051926126de8461203e565b16825260060b60208201526001604082015290565b805182101561254b5760209160051b010190565b939192909263ffffffff93848116156127f3579061272a6127319493928761263a565b8096612837565b909180835116818516818114600014612754575050505060209150015160060b90565b828495945116809114600014612774575050505060209150015160060b90565b91612794816127886020979594889561263a565b1696828651169061263a565b1692015160060b928391015160060b0392667fffffffffffff1990667fffffffffffff851382861217610b285760060b9360060b908415612475578114600019851416610b2857612314936127ed9260060b9105612650565b90612667565b5091509261ffff84101561254b5761280f60209460070161241b565b928084511690821603612827575b5050015160060b90565b6128309261268d565b388061281d565b90919461284261261b565b5061284b61261b565b9361ffff968782101561254b5760079561286683880161241b565b63ffffffff9261287a888584511689612aac565b612a665750505061288e876124e88461244f565b8881101561254b576128a190870161241b565b9160409286838583015115612a30575b6128bd92511687612aac565b156129ed57886128e3896124e883946128d461261b565b506128dd61261b565b5061244f565b169716956128f1878961209d565b60001998818a01918211610b28575b61290a828261209d565b91600192831c9261291b8b85612b1b565b8d81101561254b5761292e90860161241b565b9087820151156129d757840190818511610b28578d9061294e8d84612b1b565b9182101561254b576129628b92880161241b565b908c612972818b84511686612aac565b938491826129c1575b50506129ae5750506129a1575050898201918211610b285761290a91905b909150612900565b90915061290a9250612999565b9e509c50979a5050505050505050505050565b6129d092508b85511691612aac565b8c8e61297b565b919250508201809211610b285761290a91612999565b6064835162461bcd60e51b815260206004820152600360248201527f4f4c4400000000000000000000000000000000000000000000000000000000006044820152fd5b6128bd92508551612a408161203e565b60ff8b5483811683528060201c60060b602084015260581c1615158782015292506128b1565b96955096509750919550508084511690821614600014612a865750509190565b8261231493955061268d565b9064010000000064ffffffffff80931601918211610b2857565b63ffffffff808092169216828111801580612b0f575b612b045715612af557925b1690811115612ae7575b64ffffffffff8091169116111590565b612af090612a92565b612ad7565b612afe90612a92565b92612acd565b509290915016101590565b50838386161115612ac2565b811561247557069056fea264697066735822122072f3b235227dbfb7380342dcdbbb3a9e98e0a87ef1bdc140f80154ba3d82b1d764736f6c63430008130033a26469706673582212208204955eb29afa5cf887634096298c6165b99167310e371ca935ca52a8595f9b64736f6c63430008130033","linkReferences":{"src/libraries/FlashLoanHandler.sol":{"FlashLoanHandler":[{"start":15301,"length":20}]},"src/libraries/PositionHandler.sol":{"PositionHandler":[{"start":17324,"length":20}]},"src/libraries/SwapHandler.sol":{"SwapHandler":[{"start":12426,"length":20}]}}},"methodIdentifiers":{"factory()":"c45a0155","getPosition((address,address,uint24,address,int24,int24))":"97a90f61","mint((address,address,uint24,int24,int24,uint256,uint256,uint256,uint256))":"aa88a96c","swap((bytes,address,uint256,uint256))":"cf8c2a38","swapSingle((address,address,uint24,uint256,uint160))":"049bbb12","uniswapV3MintCallback(uint256,uint256,bytes)":"d3487997","uniswapV3SwapCallback(int256,int256,bytes)":"fa461e33"},"id":28}